{
  "address": "0x4f322720Cb8b86c4f08efEf7Da8F65962a3459fa",
  "abi": [
    {
      "inputs": [],
      "stateMutability": "nonpayable",
      "type": "constructor"
    },
    {
      "anonymous": false,
      "inputs": [
        {
          "indexed": true,
          "internalType": "address",
          "name": "previousOwner",
          "type": "address"
        },
        {
          "indexed": true,
          "internalType": "address",
          "name": "newOwner",
          "type": "address"
        }
      ],
      "name": "OwnershipTransferred",
      "type": "event"
    },
    {
      "anonymous": false,
      "inputs": [
        {
          "indexed": false,
          "internalType": "uint256",
          "name": "newValue",
          "type": "uint256"
        }
      ],
      "name": "ValueDecremented",
      "type": "event"
    },
    {
      "anonymous": false,
      "inputs": [
        {
          "indexed": false,
          "internalType": "uint256",
          "name": "newValue",
          "type": "uint256"
        }
      ],
      "name": "ValueIncremented",
      "type": "event"
    },
    {
      "inputs": [],
      "name": "current",
      "outputs": [
        {
          "internalType": "uint256",
          "name": "",
          "type": "uint256"
        }
      ],
      "stateMutability": "view",
      "type": "function"
    },
    {
      "inputs": [],
      "name": "decrement",
      "outputs": [],
      "stateMutability": "nonpayable",
      "type": "function"
    },
    {
      "inputs": [],
      "name": "increment",
      "outputs": [],
      "stateMutability": "nonpayable",
      "type": "function"
    },
    {
      "inputs": [],
      "name": "owner",
      "outputs": [
        {
          "internalType": "address",
          "name": "",
          "type": "address"
        }
      ],
      "stateMutability": "view",
      "type": "function"
    },
    {
      "inputs": [],
      "name": "renounceOwnership",
      "outputs": [],
      "stateMutability": "nonpayable",
      "type": "function"
    },
    {
      "inputs": [
        {
          "internalType": "address",
          "name": "newAddress",
          "type": "address"
        }
      ],
      "name": "transferOwnership",
      "outputs": [],
      "stateMutability": "nonpayable",
      "type": "function"
    }
  ],
  "transactionHash": "0xf895786b831e65383d89570e9192405c3b1bb677d78f49f7062dd14d0236c76a",
  "args": [],
  "numDeployments": 1,
  "solcInputHash": "bd220f6d2a0bcb1b5a3256ee7713e5d1",
  "bytecode": "0x608060405234801561001057600080fd5b5061001a3361001f565b61006f565b600080546001600160a01b038381166001600160a01b0319831681178455604051919092169283917f8be0079c531659141344cd1fd0a4f28419497f9722a3daafe3b4186f6b6457e09190a35050565b6103648061007e6000396000f3fe608060405234801561001057600080fd5b50600436106100625760003560e01c80632baeceb714610067578063715018a6146100715780638da5cb5b146100795780639fa6a6e314610099578063d09de08a146100af578063f2fde38b146100b7575b600080fd5b61006f6100ca565b005b61006f610144565b6000546040516001600160a01b0390911681526020015b60405180910390f35b6100a161017a565b604051908152602001610090565b61006f61018a565b61006f6100c53660046102c9565b6101ec565b6000546001600160a01b031633146100fd5760405162461bcd60e51b81526004016100f4906102f9565b60405180910390fd5b6101076001610222565b7f872c4112b7ea4ffec63c3b641fe385f5297f861b2a3e82054bcbabaf62adc60061013160015490565b60405190815260200160405180910390a1565b6000546001600160a01b0316331461016e5760405162461bcd60e51b81526004016100f4906102f9565b6101786000610279565b565b600061018560015490565b905090565b6000546001600160a01b031633146101b45760405162461bcd60e51b81526004016100f4906102f9565b6101c2600180546001019055565b7fc8a7fc4cfa989096cf36e066e6c623624d76311b81dfc4cb4729dcaa383512de61013160015490565b6000546001600160a01b031633146102165760405162461bcd60e51b81526004016100f4906102f9565b61021f81610279565b50565b8054806102715760405162461bcd60e51b815260206004820152601b60248201527f436f756e7465723a2064656372656d656e74206f766572666c6f77000000000060448201526064016100f4565b600019019055565b600080546001600160a01b038381166001600160a01b0319831681178455604051919092169283917f8be0079c531659141344cd1fd0a4f28419497f9722a3daafe3b4186f6b6457e09190a35050565b6000602082840312156102db57600080fd5b81356001600160a01b03811681146102f257600080fd5b9392505050565b6020808252818101527f4f776e61626c653a2063616c6c6572206973206e6f7420746865206f776e657260408201526060019056fea264697066735822122053a9dc353d1f747efcfce83b850b0bd44b238c090a1276c5bab27b220007b1a364736f6c63430008090033",
  "devdoc": {
    "kind": "dev",
    "methods": {
      "current()": {
        "details": "Returns the current value of the counter."
      },
      "decrement()": {
        "details": "Decrements the counter value by one."
      },
      "increment()": {
        "details": "Increments the counter value by one."
      },
      "owner()": {
        "details": "Returns the address of the current owner."
      },
      "renounceOwnership()": {
        "details": "Leaves the contract without owner. It will not be possible to call `onlyOwner` functions anymore. Can only be called by the current owner. NOTE: Renouncing ownership will leave the contract without an owner, thereby removing any functionality that is only available to the owner."
      },
      "transferOwnership(address)": {
        "details": "Changes the owner of the contract.",
        "params": {
          "newAddress": "address representing the new owner"
        }
      }
    },
    "version": 1
  },
  "userdoc": {
    "kind": "user",
    "methods": {},
    "version": 1
  },
  "storageLayout": {
    "storage": [
      {
        "astId": 400,
        "contract": "contracts/Counter.sol:Counter",
        "label": "_owner",
        "offset": 0,
        "slot": "0",
        "type": "t_address"
      },
      {
        "astId": 8608,
        "contract": "contracts/Counter.sol:Counter",
        "label": "counter",
        "offset": 0,
        "slot": "1",
        "type": "t_struct(Counter)6691_storage"
      }
    ],
    "types": {
      "t_address": {
        "encoding": "inplace",
        "label": "address",
        "numberOfBytes": "20"
      },
      "t_struct(Counter)6691_storage": {
        "encoding": "inplace",
        "label": "struct Counters.Counter",
        "members": [
          {
            "astId": 6690,
            "contract": "contracts/Counter.sol:Counter",
            "label": "_value",
            "offset": 0,
            "slot": "0",
            "type": "t_uint256"
          }
        ],
        "numberOfBytes": "32"
      },
      "t_uint256": {
        "encoding": "inplace",
        "label": "uint256",
        "numberOfBytes": "32"
      }
    }
  }
}