{
  "address": "0x8cc06b61002b51062c6d64a3d8fc31691786BdEB",
  "abi": [
    {
      "inputs": [
        {
          "internalType": "string",
          "name": "_collectionName",
          "type": "string"
        },
        {
          "internalType": "string",
          "name": "_collectionSymbol",
          "type": "string"
        }
      ],
      "stateMutability": "nonpayable",
      "type": "constructor"
    },
    {
      "anonymous": false,
      "inputs": [
        {
          "indexed": true,
          "internalType": "address",
          "name": "owner",
          "type": "address"
        },
        {
          "indexed": true,
          "internalType": "address",
          "name": "approved",
          "type": "address"
        },
        {
          "indexed": true,
          "internalType": "uint256",
          "name": "tokenId",
          "type": "uint256"
        }
      ],
      "name": "Approval",
      "type": "event"
    },
    {
      "anonymous": false,
      "inputs": [
        {
          "indexed": true,
          "internalType": "address",
          "name": "owner",
          "type": "address"
        },
        {
          "indexed": true,
          "internalType": "address",
          "name": "operator",
          "type": "address"
        },
        {
          "indexed": false,
          "internalType": "bool",
          "name": "approved",
          "type": "bool"
        }
      ],
      "name": "ApprovalForAll",
      "type": "event"
    },
    {
      "anonymous": false,
      "inputs": [
        {
          "indexed": true,
          "internalType": "address",
          "name": "delegator",
          "type": "address"
        },
        {
          "indexed": true,
          "internalType": "address",
          "name": "fromDelegate",
          "type": "address"
        },
        {
          "indexed": true,
          "internalType": "address",
          "name": "toDelegate",
          "type": "address"
        }
      ],
      "name": "DelegateChanged",
      "type": "event"
    },
    {
      "anonymous": false,
      "inputs": [
        {
          "indexed": true,
          "internalType": "address",
          "name": "delegate",
          "type": "address"
        },
        {
          "indexed": false,
          "internalType": "uint256",
          "name": "previousBalance",
          "type": "uint256"
        },
        {
          "indexed": false,
          "internalType": "uint256",
          "name": "newBalance",
          "type": "uint256"
        }
      ],
      "name": "DelegateVotesChanged",
      "type": "event"
    },
    {
      "anonymous": false,
      "inputs": [
        {
          "indexed": true,
          "internalType": "address",
          "name": "from",
          "type": "address"
        },
        {
          "indexed": true,
          "internalType": "address",
          "name": "to",
          "type": "address"
        },
        {
          "indexed": true,
          "internalType": "uint256",
          "name": "tokenId",
          "type": "uint256"
        }
      ],
      "name": "Transfer",
      "type": "event"
    },
    {
      "inputs": [],
      "name": "DOMAIN_SEPARATOR",
      "outputs": [
        {
          "internalType": "bytes32",
          "name": "",
          "type": "bytes32"
        }
      ],
      "stateMutability": "view",
      "type": "function"
    },
    {
      "inputs": [
        {
          "internalType": "address",
          "name": "to",
          "type": "address"
        },
        {
          "internalType": "uint256",
          "name": "tokenId",
          "type": "uint256"
        }
      ],
      "name": "approve",
      "outputs": [],
      "stateMutability": "nonpayable",
      "type": "function"
    },
    {
      "inputs": [
        {
          "internalType": "address",
          "name": "owner",
          "type": "address"
        }
      ],
      "name": "balanceOf",
      "outputs": [
        {
          "internalType": "uint256",
          "name": "",
          "type": "uint256"
        }
      ],
      "stateMutability": "view",
      "type": "function"
    },
    {
      "inputs": [
        {
          "internalType": "address",
          "name": "delegatee",
          "type": "address"
        }
      ],
      "name": "delegate",
      "outputs": [],
      "stateMutability": "nonpayable",
      "type": "function"
    },
    {
      "inputs": [
        {
          "internalType": "address",
          "name": "delegatee",
          "type": "address"
        },
        {
          "internalType": "uint256",
          "name": "nonce",
          "type": "uint256"
        },
        {
          "internalType": "uint256",
          "name": "expiry",
          "type": "uint256"
        },
        {
          "internalType": "uint8",
          "name": "v",
          "type": "uint8"
        },
        {
          "internalType": "bytes32",
          "name": "r",
          "type": "bytes32"
        },
        {
          "internalType": "bytes32",
          "name": "s",
          "type": "bytes32"
        }
      ],
      "name": "delegateBySig",
      "outputs": [],
      "stateMutability": "nonpayable",
      "type": "function"
    },
    {
      "inputs": [
        {
          "internalType": "address",
          "name": "account",
          "type": "address"
        }
      ],
      "name": "delegates",
      "outputs": [
        {
          "internalType": "address",
          "name": "",
          "type": "address"
        }
      ],
      "stateMutability": "view",
      "type": "function"
    },
    {
      "inputs": [
        {
          "internalType": "uint256",
          "name": "tokenId",
          "type": "uint256"
        }
      ],
      "name": "getApproved",
      "outputs": [
        {
          "internalType": "address",
          "name": "",
          "type": "address"
        }
      ],
      "stateMutability": "view",
      "type": "function"
    },
    {
      "inputs": [
        {
          "internalType": "uint256",
          "name": "blockNumber",
          "type": "uint256"
        }
      ],
      "name": "getPastTotalSupply",
      "outputs": [
        {
          "internalType": "uint256",
          "name": "",
          "type": "uint256"
        }
      ],
      "stateMutability": "view",
      "type": "function"
    },
    {
      "inputs": [
        {
          "internalType": "address",
          "name": "account",
          "type": "address"
        },
        {
          "internalType": "uint256",
          "name": "blockNumber",
          "type": "uint256"
        }
      ],
      "name": "getPastVotes",
      "outputs": [
        {
          "internalType": "uint256",
          "name": "",
          "type": "uint256"
        }
      ],
      "stateMutability": "view",
      "type": "function"
    },
    {
      "inputs": [
        {
          "internalType": "address",
          "name": "account",
          "type": "address"
        }
      ],
      "name": "getVotes",
      "outputs": [
        {
          "internalType": "uint256",
          "name": "",
          "type": "uint256"
        }
      ],
      "stateMutability": "view",
      "type": "function"
    },
    {
      "inputs": [
        {
          "internalType": "address",
          "name": "owner",
          "type": "address"
        },
        {
          "internalType": "address",
          "name": "operator",
          "type": "address"
        }
      ],
      "name": "isApprovedForAll",
      "outputs": [
        {
          "internalType": "bool",
          "name": "",
          "type": "bool"
        }
      ],
      "stateMutability": "view",
      "type": "function"
    },
    {
      "inputs": [],
      "name": "mintToken",
      "outputs": [],
      "stateMutability": "nonpayable",
      "type": "function"
    },
    {
      "inputs": [
        {
          "internalType": "uint256",
          "name": "amount",
          "type": "uint256"
        }
      ],
      "name": "mintTokens",
      "outputs": [],
      "stateMutability": "nonpayable",
      "type": "function"
    },
    {
      "inputs": [],
      "name": "name",
      "outputs": [
        {
          "internalType": "string",
          "name": "",
          "type": "string"
        }
      ],
      "stateMutability": "view",
      "type": "function"
    },
    {
      "inputs": [
        {
          "internalType": "address",
          "name": "owner",
          "type": "address"
        }
      ],
      "name": "nonces",
      "outputs": [
        {
          "internalType": "uint256",
          "name": "",
          "type": "uint256"
        }
      ],
      "stateMutability": "view",
      "type": "function"
    },
    {
      "inputs": [
        {
          "internalType": "uint256",
          "name": "tokenId",
          "type": "uint256"
        }
      ],
      "name": "ownerOf",
      "outputs": [
        {
          "internalType": "address",
          "name": "",
          "type": "address"
        }
      ],
      "stateMutability": "view",
      "type": "function"
    },
    {
      "inputs": [
        {
          "internalType": "address",
          "name": "from",
          "type": "address"
        },
        {
          "internalType": "address",
          "name": "to",
          "type": "address"
        },
        {
          "internalType": "uint256",
          "name": "tokenId",
          "type": "uint256"
        }
      ],
      "name": "safeTransferFrom",
      "outputs": [],
      "stateMutability": "nonpayable",
      "type": "function"
    },
    {
      "inputs": [
        {
          "internalType": "address",
          "name": "from",
          "type": "address"
        },
        {
          "internalType": "address",
          "name": "to",
          "type": "address"
        },
        {
          "internalType": "uint256",
          "name": "tokenId",
          "type": "uint256"
        },
        {
          "internalType": "bytes",
          "name": "_data",
          "type": "bytes"
        }
      ],
      "name": "safeTransferFrom",
      "outputs": [],
      "stateMutability": "nonpayable",
      "type": "function"
    },
    {
      "inputs": [
        {
          "internalType": "address",
          "name": "operator",
          "type": "address"
        },
        {
          "internalType": "bool",
          "name": "approved",
          "type": "bool"
        }
      ],
      "name": "setApprovalForAll",
      "outputs": [],
      "stateMutability": "nonpayable",
      "type": "function"
    },
    {
      "inputs": [
        {
          "internalType": "bytes4",
          "name": "interfaceId",
          "type": "bytes4"
        }
      ],
      "name": "supportsInterface",
      "outputs": [
        {
          "internalType": "bool",
          "name": "",
          "type": "bool"
        }
      ],
      "stateMutability": "view",
      "type": "function"
    },
    {
      "inputs": [],
      "name": "symbol",
      "outputs": [
        {
          "internalType": "string",
          "name": "",
          "type": "string"
        }
      ],
      "stateMutability": "view",
      "type": "function"
    },
    {
      "inputs": [
        {
          "internalType": "uint256",
          "name": "tokenId",
          "type": "uint256"
        }
      ],
      "name": "tokenURI",
      "outputs": [
        {
          "internalType": "string",
          "name": "",
          "type": "string"
        }
      ],
      "stateMutability": "view",
      "type": "function"
    },
    {
      "inputs": [
        {
          "internalType": "address",
          "name": "from",
          "type": "address"
        },
        {
          "internalType": "address",
          "name": "to",
          "type": "address"
        },
        {
          "internalType": "uint256",
          "name": "tokenId",
          "type": "uint256"
        }
      ],
      "name": "transferFrom",
      "outputs": [],
      "stateMutability": "nonpayable",
      "type": "function"
    }
  ],
  "transactionHash": "0xdaaab2b019b13a12d56c657ea045ab70cb15115b2e73a9441f0e70ab3023449f",
  "args": [
    "DAO Token",
    "DAO"
  ],
  "numDeployments": 1,
  "solcInputHash": "bd220f6d2a0bcb1b5a3256ee7713e5d1",
  "bytecode": "0x6101406040523480156200001257600080fd5b50604051620025f1380380620025f1833981016040819052620000359162000290565b81604051806040016040528060018152602001603160f81b815250838381600090805190602001906200006a9291906200011d565b508051620000809060019060208401906200011d565b5050825160208085019190912083518483012060e08290526101008190524660a0818152604080517f8b73c3c69bb8fe3d512ecc4cf759cc79239f7b179b0ffacaa9a75d522b39400f81880181905281830187905260608201869052608082019490945230818401528151808203909301835260c0019052805194019390932091935091906080523060c052610120525062000337945050505050565b8280546200012b90620002fa565b90600052602060002090601f0160209004810192826200014f57600085556200019a565b82601f106200016a57805160ff19168380011785556200019a565b828001600101855582156200019a579182015b828111156200019a5782518255916020019190600101906200017d565b50620001a8929150620001ac565b5090565b5b80821115620001a85760008155600101620001ad565b634e487b7160e01b600052604160045260246000fd5b600082601f830112620001eb57600080fd5b81516001600160401b0380821115620002085762000208620001c3565b604051601f8301601f19908116603f01168101908282118183101715620002335762000233620001c3565b816040528381526020925086838588010111156200025057600080fd5b600091505b8382101562000274578582018301518183018401529082019062000255565b83821115620002865760008385830101525b9695505050505050565b60008060408385031215620002a457600080fd5b82516001600160401b0380821115620002bc57600080fd5b620002ca86838701620001d9565b93506020850151915080821115620002e157600080fd5b50620002f085828601620001d9565b9150509250929050565b600181811c908216806200030f57607f821691505b602082108114156200033157634e487b7160e01b600052602260045260246000fd5b50919050565b60805160a05160c05160e051610100516101205161226a620003876000396000610e8501526000610ed401526000610eaf01526000610e0801526000610e3201526000610e5c015261226a6000f3fe608060405234801561001057600080fd5b506004361061014d5760003560e01c80636352211e116100c35780639ab24eb01161007c5780639ab24eb0146102cc578063a22cb465146102df578063b88d4fde146102f2578063c3cda52014610305578063c87b56dd14610318578063e985e9c51461032b57600080fd5b80636352211e1461026557806370a08231146102785780637ecebe001461028b5780638e539e8c1461029e57806395d89b41146102b157806397304ced146102b957600080fd5b806323b872dd1161011557806323b872dd146101d75780633644e515146101ea5780633a46b1a81461020057806342842e0e14610213578063587cde1e146102265780635c19a95c1461025257600080fd5b806301ffc9a71461015257806306fdde031461017a578063081812fc1461018f578063095ea7b3146101ba5780632004ffd9146101cf575b600080fd5b610165610160366004611d0a565b610367565b60405190151581526020015b60405180910390f35b6101826103b9565b6040516101719190611d7f565b6101a261019d366004611d92565b61044b565b6040516001600160a01b039091168152602001610171565b6101cd6101c8366004611dc7565b6104e5565b005b6101cd6105fb565b6101cd6101e5366004611df1565b610623565b6101f2610654565b604051908152602001610171565b6101f261020e366004611dc7565b610663565b6101cd610221366004611df1565b61068c565b6101a2610234366004611e2d565b6001600160a01b039081166000908152600660205260409020541690565b6101cd610260366004611e2d565b6106a7565b6101a2610273366004611d92565b6106b6565b6101f2610286366004611e2d565b61072d565b6101f2610299366004611e2d565b6107b4565b6101f26102ac366004611d92565b6107d2565b61018261082e565b6101cd6102c7366004611d92565b61083d565b6101f26102da366004611e2d565b610862565b6101cd6102ed366004611e48565b610883565b6101cd610300366004611e9a565b61088e565b6101cd610313366004611f76565b6108c6565b610182610326366004611d92565b6109f3565b610165610339366004611fd6565b6001600160a01b03918216600090815260056020908152604080832093909416825291909152205460ff1690565b60006001600160e01b031982166380ac58cd60e01b148061039857506001600160e01b03198216635b5e139f60e01b145b806103b357506301ffc9a760e01b6001600160e01b03198316145b92915050565b6060600080546103c890612009565b80601f01602080910402602001604051908101604052809291908181526020018280546103f490612009565b80156104415780601f1061041657610100808354040283529160200191610441565b820191906000526020600020905b81548152906001019060200180831161042457829003601f168201915b5050505050905090565b6000818152600260205260408120546001600160a01b03166104c95760405162461bcd60e51b815260206004820152602c60248201527f4552433732313a20617070726f76656420717565727920666f72206e6f6e657860448201526b34b9ba32b73a103a37b5b2b760a11b60648201526084015b60405180910390fd5b506000908152600460205260409020546001600160a01b031690565b60006104f0826106b6565b9050806001600160a01b0316836001600160a01b0316141561055e5760405162461bcd60e51b815260206004820152602160248201527f4552433732313a20617070726f76616c20746f2063757272656e74206f776e656044820152603960f91b60648201526084016104c0565b336001600160a01b038216148061057a575061057a8133610339565b6105ec5760405162461bcd60e51b815260206004820152603860248201527f4552433732313a20617070726f76652063616c6c6572206973206e6f74206f7760448201527f6e6572206e6f7220617070726f76656420666f7220616c6c000000000000000060648201526084016104c0565b6105f68383610ada565b505050565b6000610606600a5490565b9050610616600a80546001019055565b6106203382610b48565b50565b61062d3382610b62565b6106495760405162461bcd60e51b81526004016104c09061203e565b6105f6838383610c59565b600061065e610dfb565b905090565b6001600160a01b03821660009081526007602052604081206106859083610f22565b9392505050565b6105f68383836040518060200160405280600081525061088e565b336106b28183611031565b5050565b6000818152600260205260408120546001600160a01b0316806103b35760405162461bcd60e51b815260206004820152602960248201527f4552433732313a206f776e657220717565727920666f72206e6f6e657869737460448201526832b73a103a37b5b2b760b91b60648201526084016104c0565b60006001600160a01b0382166107985760405162461bcd60e51b815260206004820152602a60248201527f4552433732313a2062616c616e636520717565727920666f7220746865207a65604482015269726f206164647265737360b01b60648201526084016104c0565b506001600160a01b031660009081526003602052604090205490565b6001600160a01b0381166000908152600960205260408120546103b3565b60004382106108235760405162461bcd60e51b815260206004820152601a60248201527f566f7465733a20626c6f636b206e6f7420796574206d696e656400000000000060448201526064016104c0565b6103b3600883610f22565b6060600180546103c890612009565b60005b818110156106b2576108506105fb565b8061085a816120a5565b915050610840565b6001600160a01b03811660009081526007602052604081206103b3906110a3565b6106b23383836110ff565b6108983383610b62565b6108b45760405162461bcd60e51b81526004016104c09061203e565b6108c0848484846111ce565b50505050565b834211156109165760405162461bcd60e51b815260206004820152601860248201527f566f7465733a207369676e61747572652065787069726564000000000000000060448201526064016104c0565b604080517fe48329057bfd03d55e49b547132e39cffd9c1820ad7b9d4c5307691425d15adf60208201526001600160a01b038816918101919091526060810186905260808101859052600090610990906109889060a00160405160208183030381529060405280519060200120611201565b85858561124f565b905061099b81611277565b86146109e05760405162461bcd60e51b8152602060048201526014602482015273566f7465733a20696e76616c6964206e6f6e636560601b60448201526064016104c0565b6109ea8188611031565b50505050505050565b6000818152600260205260409020546060906001600160a01b0316610a725760405162461bcd60e51b815260206004820152602f60248201527f4552433732314d657461646174613a2055524920717565727920666f72206e6f60448201526e3732bc34b9ba32b73a103a37b5b2b760891b60648201526084016104c0565b6000610a8960408051602081019091526000815290565b90506000815111610aa95760405180602001604052806000815250610685565b80610ab38461129f565b604051602001610ac49291906120c0565b6040516020818303038152906040529392505050565b600081815260046020526040902080546001600160a01b0319166001600160a01b0384169081179091558190610b0f826106b6565b6001600160a01b03167f8c5be1e5ebec7d5bd14f71427d1e84f3dd0314c0f7b2291e5b200ac8c7c3b92560405160405180910390a45050565b6106b282826040518060200160405280600081525061139d565b6000818152600260205260408120546001600160a01b0316610bdb5760405162461bcd60e51b815260206004820152602c60248201527f4552433732313a206f70657261746f7220717565727920666f72206e6f6e657860448201526b34b9ba32b73a103a37b5b2b760a11b60648201526084016104c0565b6000610be6836106b6565b9050806001600160a01b0316846001600160a01b03161480610c2d57506001600160a01b0380821660009081526005602090815260408083209388168352929052205460ff165b80610c515750836001600160a01b0316610c468461044b565b6001600160a01b0316145b949350505050565b826001600160a01b0316610c6c826106b6565b6001600160a01b031614610cd05760405162461bcd60e51b815260206004820152602560248201527f4552433732313a207472616e736665722066726f6d20696e636f72726563742060448201526437bbb732b960d91b60648201526084016104c0565b6001600160a01b038216610d325760405162461bcd60e51b8152602060048201526024808201527f4552433732313a207472616e7366657220746f20746865207a65726f206164646044820152637265737360e01b60648201526084016104c0565b610d3d600082610ada565b6001600160a01b0383166000908152600360205260408120805460019290610d669084906120ef565b90915550506001600160a01b0382166000908152600360205260408120805460019290610d94908490612106565b909155505060008181526002602052604080822080546001600160a01b0319166001600160a01b0386811691821790925591518493918716917fddf252ad1be2c89b69c2b068fc378daa952ba7f163c4a11628f55a4df523b3ef91a46105f68383836113d0565b6000306001600160a01b037f000000000000000000000000000000000000000000000000000000000000000016148015610e5457507f000000000000000000000000000000000000000000000000000000000000000046145b15610e7e57507f000000000000000000000000000000000000000000000000000000000000000090565b50604080517f00000000000000000000000000000000000000000000000000000000000000006020808301919091527f0000000000000000000000000000000000000000000000000000000000000000828401527f000000000000000000000000000000000000000000000000000000000000000060608301524660808301523060a0808401919091528351808403909101815260c0909201909252805191012090565b6000438210610f735760405162461bcd60e51b815260206004820181905260248201527f436865636b706f696e74733a20626c6f636b206e6f7420796574206d696e656460448201526064016104c0565b825460005b81811015610fd8576000610f8c82846113db565b905084866000018281548110610fa457610fa461211e565b60009182526020909120015463ffffffff161115610fc457809250610fd2565b610fcf816001612106565b91505b50610f78565b811561101c5784610fea6001846120ef565b81548110610ffa57610ffa61211e565b60009182526020909120015464010000000090046001600160e01b031661101f565b60005b6001600160e01b031695945050505050565b6001600160a01b0382811660008181526006602052604080822080548686166001600160a01b0319821681179092559151919094169392849290917f3134e8a2e6d97e929a7e54011ea5485d7d196dd5f0ba4d4ef95803e8e3fc257f9190a46105f6818361109e866113f6565b611401565b805460009080156110ec57826110ba6001836120ef565b815481106110ca576110ca61211e565b60009182526020909120015464010000000090046001600160e01b03166110ef565b60005b6001600160e01b03169392505050565b816001600160a01b0316836001600160a01b031614156111615760405162461bcd60e51b815260206004820152601960248201527f4552433732313a20617070726f766520746f2063616c6c65720000000000000060448201526064016104c0565b6001600160a01b03838116600081815260056020908152604080832094871680845294825291829020805460ff191686151590811790915591519182527f17307eab39ab6107e8899845ad3d59bd9653f200f220920489ca2b5937696c31910160405180910390a3505050565b6111d9848484610c59565b6111e58484848461153e565b6108c05760405162461bcd60e51b81526004016104c090612134565b60006103b361120e610dfb565b8360405161190160f01b6020820152602281018390526042810182905260009060620160405160208183030381529060405280519060200120905092915050565b600080600061126087878787611648565b9150915061126d81611735565b5095945050505050565b6001600160a01b03811660009081526009602052604090208054600181018255905b50919050565b6060816112c35750506040805180820190915260018152600360fc1b602082015290565b8160005b81156112ed57806112d7816120a5565b91506112e69050600a8361219c565b91506112c7565b60008167ffffffffffffffff81111561130857611308611e84565b6040519080825280601f01601f191660200182016040528015611332576020820181803683370190505b5090505b8415610c51576113476001836120ef565b9150611354600a866121b0565b61135f906030612106565b60f81b8183815181106113745761137461211e565b60200101906001600160f81b031916908160001a905350611396600a8661219c565b9450611336565b6113a783836118f0565b6113b4600084848461153e565b6105f65760405162461bcd60e51b81526004016104c090612134565b6105f6838383611a3a565b60006113ea600284841861219c565b61068590848416612106565b60006103b38261072d565b816001600160a01b0316836001600160a01b0316141580156114235750600081115b156105f6576001600160a01b038316156114b1576001600160a01b0383166000908152600760205260408120819061145e90611a4685611a52565b91509150846001600160a01b03167fdec2bacdd2f05b59de34da9b523dff8be42e5e38e818c82fdb0bae774387a72483836040516114a6929190918252602082015260400190565b60405180910390a250505b6001600160a01b038216156105f6576001600160a01b038216600090815260076020526040812081906114e790611a8085611a52565b91509150836001600160a01b03167fdec2bacdd2f05b59de34da9b523dff8be42e5e38e818c82fdb0bae774387a724838360405161152f929190918252602082015260400190565b60405180910390a25050505050565b60006001600160a01b0384163b1561164057604051630a85bd0160e11b81526001600160a01b0385169063150b7a02906115829033908990889088906004016121c4565b602060405180830381600087803b15801561159c57600080fd5b505af19250505080156115cc575060408051601f3d908101601f191682019092526115c991810190612201565b60015b611626573d8080156115fa576040519150601f19603f3d011682016040523d82523d6000602084013e6115ff565b606091505b50805161161e5760405162461bcd60e51b81526004016104c090612134565b805181602001fd5b6001600160e01b031916630a85bd0160e11b149050610c51565b506001610c51565b6000807f7fffffffffffffffffffffffffffffff5d576e7357a4501ddfe92f46681b20a083111561167f575060009050600361172c565b8460ff16601b1415801561169757508460ff16601c14155b156116a8575060009050600461172c565b6040805160008082526020820180845289905260ff881692820192909252606081018690526080810185905260019060a0016020604051602081039080840390855afa1580156116fc573d6000803e3d6000fd5b5050604051601f1901519150506001600160a01b0381166117255760006001925092505061172c565b9150600090505b94509492505050565b60008160048111156117495761174961221e565b14156117525750565b60018160048111156117665761176661221e565b14156117b45760405162461bcd60e51b815260206004820152601860248201527f45434453413a20696e76616c6964207369676e6174757265000000000000000060448201526064016104c0565b60028160048111156117c8576117c861221e565b14156118165760405162461bcd60e51b815260206004820152601f60248201527f45434453413a20696e76616c6964207369676e6174757265206c656e6774680060448201526064016104c0565b600381600481111561182a5761182a61221e565b14156118835760405162461bcd60e51b815260206004820152602260248201527f45434453413a20696e76616c6964207369676e6174757265202773272076616c604482015261756560f01b60648201526084016104c0565b60048160048111156118975761189761221e565b14156106205760405162461bcd60e51b815260206004820152602260248201527f45434453413a20696e76616c6964207369676e6174757265202776272076616c604482015261756560f01b60648201526084016104c0565b6001600160a01b0382166119465760405162461bcd60e51b815260206004820181905260248201527f4552433732313a206d696e7420746f20746865207a65726f206164647265737360448201526064016104c0565b6000818152600260205260409020546001600160a01b0316156119ab5760405162461bcd60e51b815260206004820152601c60248201527f4552433732313a20746f6b656e20616c7265616479206d696e7465640000000060448201526064016104c0565b6001600160a01b03821660009081526003602052604081208054600192906119d4908490612106565b909155505060008181526002602052604080822080546001600160a01b0319166001600160a01b03861690811790915590518392907fddf252ad1be2c89b69c2b068fc378daa952ba7f163c4a11628f55a4df523b3ef908290a46106b2600083836113d0565b6105f683836001611a8c565b600061068582846120ef565b600080611a7485611a6f611a65886110a3565b868863ffffffff16565b611afc565b91509150935093915050565b60006106858284612106565b6001600160a01b038316611aab57611aa86008611a8083611a52565b50505b6001600160a01b038216611aca57611ac76008611a4683611a52565b50505b6001600160a01b038381166000908152600660205260408082205485841683529120546105f692918216911683611401565b8154600090819081611b0d866110a3565b9050600082118015611b4b57504386611b276001856120ef565b81548110611b3757611b3761211e565b60009182526020909120015463ffffffff16145b15611bab57611b5985611c22565b86611b656001856120ef565b81548110611b7557611b7561211e565b9060005260206000200160000160046101000a8154816001600160e01b0302191690836001600160e01b03160217905550611c19565b856000016040518060400160405280611bc343611c8f565b63ffffffff168152602001611bd788611c22565b6001600160e01b0390811690915282546001810184556000938452602093849020835194909301519091166401000000000263ffffffff909316929092179101555b95939450505050565b60006001600160e01b03821115611c8b5760405162461bcd60e51b815260206004820152602760248201527f53616665436173743a2076616c756520646f65736e27742066697420696e20326044820152663234206269747360c81b60648201526084016104c0565b5090565b600063ffffffff821115611c8b5760405162461bcd60e51b815260206004820152602660248201527f53616665436173743a2076616c756520646f65736e27742066697420696e203360448201526532206269747360d01b60648201526084016104c0565b6001600160e01b03198116811461062057600080fd5b600060208284031215611d1c57600080fd5b813561068581611cf4565b60005b83811015611d42578181015183820152602001611d2a565b838111156108c05750506000910152565b60008151808452611d6b816020860160208601611d27565b601f01601f19169290920160200192915050565b6020815260006106856020830184611d53565b600060208284031215611da457600080fd5b5035919050565b80356001600160a01b0381168114611dc257600080fd5b919050565b60008060408385031215611dda57600080fd5b611de383611dab565b946020939093013593505050565b600080600060608486031215611e0657600080fd5b611e0f84611dab565b9250611e1d60208501611dab565b9150604084013590509250925092565b600060208284031215611e3f57600080fd5b61068582611dab565b60008060408385031215611e5b57600080fd5b611e6483611dab565b915060208301358015158114611e7957600080fd5b809150509250929050565b634e487b7160e01b600052604160045260246000fd5b60008060008060808587031215611eb057600080fd5b611eb985611dab565b9350611ec760208601611dab565b925060408501359150606085013567ffffffffffffffff80821115611eeb57600080fd5b818701915087601f830112611eff57600080fd5b813581811115611f1157611f11611e84565b604051601f8201601f19908116603f01168101908382118183101715611f3957611f39611e84565b816040528281528a6020848701011115611f5257600080fd5b82602086016020830137600060208483010152809550505050505092959194509250565b60008060008060008060c08789031215611f8f57600080fd5b611f9887611dab565b95506020870135945060408701359350606087013560ff81168114611fbc57600080fd5b9598949750929560808101359460a0909101359350915050565b60008060408385031215611fe957600080fd5b611ff283611dab565b915061200060208401611dab565b90509250929050565b600181811c9082168061201d57607f821691505b6020821081141561129957634e487b7160e01b600052602260045260246000fd5b60208082526031908201527f4552433732313a207472616e736665722063616c6c6572206973206e6f74206f6040820152701ddb995c881b9bdc88185c1c1c9bdd9959607a1b606082015260800190565b634e487b7160e01b600052601160045260246000fd5b60006000198214156120b9576120b961208f565b5060010190565b600083516120d2818460208801611d27565b8351908301906120e6818360208801611d27565b01949350505050565b6000828210156121015761210161208f565b500390565b600082198211156121195761211961208f565b500190565b634e487b7160e01b600052603260045260246000fd5b60208082526032908201527f4552433732313a207472616e7366657220746f206e6f6e20455243373231526560408201527131b2b4bb32b91034b6b83632b6b2b73a32b960711b606082015260800190565b634e487b7160e01b600052601260045260246000fd5b6000826121ab576121ab612186565b500490565b6000826121bf576121bf612186565b500690565b6001600160a01b03858116825284166020820152604081018390526080606082018190526000906121f790830184611d53565b9695505050505050565b60006020828403121561221357600080fd5b815161068581611cf4565b634e487b7160e01b600052602160045260246000fdfea2646970667358221220e3b5be71a6d21b970098ce101c4efc4f9a11578b62dfe594991a3ba1b295778564736f6c63430008090033",
  "devdoc": {
    "kind": "dev",
    "methods": {
      "DOMAIN_SEPARATOR()": {
        "details": "Returns the contract's {EIP712} domain separator."
      },
      "approve(address,uint256)": {
        "details": "See {IERC721-approve}."
      },
      "balanceOf(address)": {
        "details": "See {IERC721-balanceOf}."
      },
      "delegate(address)": {
        "details": "Delegates votes from the sender to `delegatee`."
      },
      "delegateBySig(address,uint256,uint256,uint8,bytes32,bytes32)": {
        "details": "Delegates votes from signer to `delegatee`."
      },
      "delegates(address)": {
        "details": "Returns the delegate that `account` has chosen."
      },
      "getApproved(uint256)": {
        "details": "See {IERC721-getApproved}."
      },
      "getPastTotalSupply(uint256)": {
        "details": "Returns the total supply of votes available at the end of a past block (`blockNumber`). NOTE: This value is the sum of all available votes, which is not necessarily the sum of all delegated votes. Votes that have not been delegated are still part of total supply, even though they would not participate in a vote. Requirements: - `blockNumber` must have been already mined"
      },
      "getPastVotes(address,uint256)": {
        "details": "Returns the amount of votes that `account` had at the end of a past block (`blockNumber`). Requirements: - `blockNumber` must have been already mined"
      },
      "getVotes(address)": {
        "details": "Returns the current amount of votes that `account` has."
      },
      "isApprovedForAll(address,address)": {
        "details": "See {IERC721-isApprovedForAll}."
      },
      "mintToken()": {
        "details": "Mints a new token after incrementing the id counter by one."
      },
      "mintTokens(uint256)": {
        "details": "Mints a given amount of tokens to the sender."
      },
      "name()": {
        "details": "See {IERC721Metadata-name}."
      },
      "nonces(address)": {
        "details": "Returns an address nonce."
      },
      "ownerOf(uint256)": {
        "details": "See {IERC721-ownerOf}."
      },
      "safeTransferFrom(address,address,uint256)": {
        "details": "See {IERC721-safeTransferFrom}."
      },
      "safeTransferFrom(address,address,uint256,bytes)": {
        "details": "See {IERC721-safeTransferFrom}."
      },
      "setApprovalForAll(address,bool)": {
        "details": "See {IERC721-setApprovalForAll}."
      },
      "supportsInterface(bytes4)": {
        "details": "See {IERC165-supportsInterface}."
      },
      "symbol()": {
        "details": "See {IERC721Metadata-symbol}."
      },
      "tokenURI(uint256)": {
        "details": "See {IERC721Metadata-tokenURI}."
      },
      "transferFrom(address,address,uint256)": {
        "details": "See {IERC721-transferFrom}."
      }
    },
    "version": 1
  },
  "userdoc": {
    "kind": "user",
    "methods": {
      "mintToken()": {
        "notice": "not using onlyOwner modifier for testing purposes. On real cases, this should be used or charge the user a minting fee."
      },
      "mintTokens(uint256)": {
        "notice": "not using onlyOwner modifier for testing purposes. On real cases, this should be used or charge the user a minting fee."
      }
    },
    "version": 1
  },
  "storageLayout": {
    "storage": [
      {
        "astId": 5083,
        "contract": "contracts/token/DaoNFT.sol:DaoNFT",
        "label": "_name",
        "offset": 0,
        "slot": "0",
        "type": "t_string_storage"
      },
      {
        "astId": 5085,
        "contract": "contracts/token/DaoNFT.sol:DaoNFT",
        "label": "_symbol",
        "offset": 0,
        "slot": "1",
        "type": "t_string_storage"
      },
      {
        "astId": 5089,
        "contract": "contracts/token/DaoNFT.sol:DaoNFT",
        "label": "_owners",
        "offset": 0,
        "slot": "2",
        "type": "t_mapping(t_uint256,t_address)"
      },
      {
        "astId": 5093,
        "contract": "contracts/token/DaoNFT.sol:DaoNFT",
        "label": "_balances",
        "offset": 0,
        "slot": "3",
        "type": "t_mapping(t_address,t_uint256)"
      },
      {
        "astId": 5097,
        "contract": "contracts/token/DaoNFT.sol:DaoNFT",
        "label": "_tokenApprovals",
        "offset": 0,
        "slot": "4",
        "type": "t_mapping(t_uint256,t_address)"
      },
      {
        "astId": 5103,
        "contract": "contracts/token/DaoNFT.sol:DaoNFT",
        "label": "_operatorApprovals",
        "offset": 0,
        "slot": "5",
        "type": "t_mapping(t_address,t_mapping(t_address,t_bool))"
      },
      {
        "astId": 4593,
        "contract": "contracts/token/DaoNFT.sol:DaoNFT",
        "label": "_delegation",
        "offset": 0,
        "slot": "6",
        "type": "t_mapping(t_address,t_address)"
      },
      {
        "astId": 4598,
        "contract": "contracts/token/DaoNFT.sol:DaoNFT",
        "label": "_delegateCheckpoints",
        "offset": 0,
        "slot": "7",
        "type": "t_mapping(t_address,t_struct(History)6444_storage)"
      },
      {
        "astId": 4601,
        "contract": "contracts/token/DaoNFT.sol:DaoNFT",
        "label": "_totalCheckpoints",
        "offset": 0,
        "slot": "8",
        "type": "t_struct(History)6444_storage"
      },
      {
        "astId": 4606,
        "contract": "contracts/token/DaoNFT.sol:DaoNFT",
        "label": "_nonces",
        "offset": 0,
        "slot": "9",
        "type": "t_mapping(t_address,t_struct(Counter)6691_storage)"
      },
      {
        "astId": 8996,
        "contract": "contracts/token/DaoNFT.sol:DaoNFT",
        "label": "tokenIdCounter",
        "offset": 0,
        "slot": "10",
        "type": "t_struct(Counter)6691_storage"
      }
    ],
    "types": {
      "t_address": {
        "encoding": "inplace",
        "label": "address",
        "numberOfBytes": "20"
      },
      "t_array(t_struct(Checkpoint)6439_storage)dyn_storage": {
        "base": "t_struct(Checkpoint)6439_storage",
        "encoding": "dynamic_array",
        "label": "struct Checkpoints.Checkpoint[]",
        "numberOfBytes": "32"
      },
      "t_bool": {
        "encoding": "inplace",
        "label": "bool",
        "numberOfBytes": "1"
      },
      "t_mapping(t_address,t_address)": {
        "encoding": "mapping",
        "key": "t_address",
        "label": "mapping(address => address)",
        "numberOfBytes": "32",
        "value": "t_address"
      },
      "t_mapping(t_address,t_bool)": {
        "encoding": "mapping",
        "key": "t_address",
        "label": "mapping(address => bool)",
        "numberOfBytes": "32",
        "value": "t_bool"
      },
      "t_mapping(t_address,t_mapping(t_address,t_bool))": {
        "encoding": "mapping",
        "key": "t_address",
        "label": "mapping(address => mapping(address => bool))",
        "numberOfBytes": "32",
        "value": "t_mapping(t_address,t_bool)"
      },
      "t_mapping(t_address,t_struct(Counter)6691_storage)": {
        "encoding": "mapping",
        "key": "t_address",
        "label": "mapping(address => struct Counters.Counter)",
        "numberOfBytes": "32",
        "value": "t_struct(Counter)6691_storage"
      },
      "t_mapping(t_address,t_struct(History)6444_storage)": {
        "encoding": "mapping",
        "key": "t_address",
        "label": "mapping(address => struct Checkpoints.History)",
        "numberOfBytes": "32",
        "value": "t_struct(History)6444_storage"
      },
      "t_mapping(t_address,t_uint256)": {
        "encoding": "mapping",
        "key": "t_address",
        "label": "mapping(address => uint256)",
        "numberOfBytes": "32",
        "value": "t_uint256"
      },
      "t_mapping(t_uint256,t_address)": {
        "encoding": "mapping",
        "key": "t_uint256",
        "label": "mapping(uint256 => address)",
        "numberOfBytes": "32",
        "value": "t_address"
      },
      "t_string_storage": {
        "encoding": "bytes",
        "label": "string",
        "numberOfBytes": "32"
      },
      "t_struct(Checkpoint)6439_storage": {
        "encoding": "inplace",
        "label": "struct Checkpoints.Checkpoint",
        "members": [
          {
            "astId": 6436,
            "contract": "contracts/token/DaoNFT.sol:DaoNFT",
            "label": "_blockNumber",
            "offset": 0,
            "slot": "0",
            "type": "t_uint32"
          },
          {
            "astId": 6438,
            "contract": "contracts/token/DaoNFT.sol:DaoNFT",
            "label": "_value",
            "offset": 4,
            "slot": "0",
            "type": "t_uint224"
          }
        ],
        "numberOfBytes": "32"
      },
      "t_struct(Counter)6691_storage": {
        "encoding": "inplace",
        "label": "struct Counters.Counter",
        "members": [
          {
            "astId": 6690,
            "contract": "contracts/token/DaoNFT.sol:DaoNFT",
            "label": "_value",
            "offset": 0,
            "slot": "0",
            "type": "t_uint256"
          }
        ],
        "numberOfBytes": "32"
      },
      "t_struct(History)6444_storage": {
        "encoding": "inplace",
        "label": "struct Checkpoints.History",
        "members": [
          {
            "astId": 6443,
            "contract": "contracts/token/DaoNFT.sol:DaoNFT",
            "label": "_checkpoints",
            "offset": 0,
            "slot": "0",
            "type": "t_array(t_struct(Checkpoint)6439_storage)dyn_storage"
          }
        ],
        "numberOfBytes": "32"
      },
      "t_uint224": {
        "encoding": "inplace",
        "label": "uint224",
        "numberOfBytes": "28"
      },
      "t_uint256": {
        "encoding": "inplace",
        "label": "uint256",
        "numberOfBytes": "32"
      },
      "t_uint32": {
        "encoding": "inplace",
        "label": "uint32",
        "numberOfBytes": "4"
      }
    }
  }
}