{
  "address": "0x9Be367fDA77d2196E8578Ad3E6032f03bA5E4C17",
  "abi": [
    {
      "inputs": [
        {
          "internalType": "contract IVotes",
          "name": "_token",
          "type": "address"
        },
        {
          "internalType": "uint256",
          "name": "_quorumPercentage",
          "type": "uint256"
        },
        {
          "internalType": "uint256",
          "name": "_governanceVotingPeriod",
          "type": "uint256"
        },
        {
          "internalType": "uint256",
          "name": "_governanceVotingDelay",
          "type": "uint256"
        },
        {
          "internalType": "contract TimelockController",
          "name": "_timelock",
          "type": "address"
        }
      ],
      "stateMutability": "nonpayable",
      "type": "constructor"
    },
    {
      "inputs": [],
      "name": "Empty",
      "type": "error"
    },
    {
      "anonymous": false,
      "inputs": [
        {
          "indexed": false,
          "internalType": "uint256",
          "name": "proposalId",
          "type": "uint256"
        }
      ],
      "name": "ProposalCanceled",
      "type": "event"
    },
    {
      "anonymous": false,
      "inputs": [
        {
          "indexed": false,
          "internalType": "uint256",
          "name": "proposalId",
          "type": "uint256"
        },
        {
          "indexed": false,
          "internalType": "address",
          "name": "proposer",
          "type": "address"
        },
        {
          "indexed": false,
          "internalType": "address[]",
          "name": "targets",
          "type": "address[]"
        },
        {
          "indexed": false,
          "internalType": "uint256[]",
          "name": "values",
          "type": "uint256[]"
        },
        {
          "indexed": false,
          "internalType": "string[]",
          "name": "signatures",
          "type": "string[]"
        },
        {
          "indexed": false,
          "internalType": "bytes[]",
          "name": "calldatas",
          "type": "bytes[]"
        },
        {
          "indexed": false,
          "internalType": "uint256",
          "name": "startBlock",
          "type": "uint256"
        },
        {
          "indexed": false,
          "internalType": "uint256",
          "name": "endBlock",
          "type": "uint256"
        },
        {
          "indexed": false,
          "internalType": "string",
          "name": "description",
          "type": "string"
        }
      ],
      "name": "ProposalCreated",
      "type": "event"
    },
    {
      "anonymous": false,
      "inputs": [
        {
          "indexed": false,
          "internalType": "uint256",
          "name": "proposalId",
          "type": "uint256"
        }
      ],
      "name": "ProposalExecuted",
      "type": "event"
    },
    {
      "anonymous": false,
      "inputs": [
        {
          "indexed": false,
          "internalType": "uint256",
          "name": "proposalId",
          "type": "uint256"
        },
        {
          "indexed": false,
          "internalType": "uint256",
          "name": "eta",
          "type": "uint256"
        }
      ],
      "name": "ProposalQueued",
      "type": "event"
    },
    {
      "anonymous": false,
      "inputs": [
        {
          "indexed": false,
          "internalType": "uint256",
          "name": "oldQuorumNumerator",
          "type": "uint256"
        },
        {
          "indexed": false,
          "internalType": "uint256",
          "name": "newQuorumNumerator",
          "type": "uint256"
        }
      ],
      "name": "QuorumNumeratorUpdated",
      "type": "event"
    },
    {
      "anonymous": false,
      "inputs": [
        {
          "indexed": false,
          "internalType": "address",
          "name": "oldTimelock",
          "type": "address"
        },
        {
          "indexed": false,
          "internalType": "address",
          "name": "newTimelock",
          "type": "address"
        }
      ],
      "name": "TimelockChange",
      "type": "event"
    },
    {
      "anonymous": false,
      "inputs": [
        {
          "indexed": true,
          "internalType": "address",
          "name": "voter",
          "type": "address"
        },
        {
          "indexed": false,
          "internalType": "uint256",
          "name": "proposalId",
          "type": "uint256"
        },
        {
          "indexed": false,
          "internalType": "uint8",
          "name": "support",
          "type": "uint8"
        },
        {
          "indexed": false,
          "internalType": "uint256",
          "name": "weight",
          "type": "uint256"
        },
        {
          "indexed": false,
          "internalType": "string",
          "name": "reason",
          "type": "string"
        }
      ],
      "name": "VoteCast",
      "type": "event"
    },
    {
      "anonymous": false,
      "inputs": [
        {
          "indexed": true,
          "internalType": "address",
          "name": "voter",
          "type": "address"
        },
        {
          "indexed": false,
          "internalType": "uint256",
          "name": "proposalId",
          "type": "uint256"
        },
        {
          "indexed": false,
          "internalType": "uint8",
          "name": "support",
          "type": "uint8"
        },
        {
          "indexed": false,
          "internalType": "uint256",
          "name": "weight",
          "type": "uint256"
        },
        {
          "indexed": false,
          "internalType": "string",
          "name": "reason",
          "type": "string"
        },
        {
          "indexed": false,
          "internalType": "bytes",
          "name": "params",
          "type": "bytes"
        }
      ],
      "name": "VoteCastWithParams",
      "type": "event"
    },
    {
      "inputs": [],
      "name": "BALLOT_TYPEHASH",
      "outputs": [
        {
          "internalType": "bytes32",
          "name": "",
          "type": "bytes32"
        }
      ],
      "stateMutability": "view",
      "type": "function"
    },
    {
      "inputs": [],
      "name": "COUNTING_MODE",
      "outputs": [
        {
          "internalType": "string",
          "name": "",
          "type": "string"
        }
      ],
      "stateMutability": "pure",
      "type": "function"
    },
    {
      "inputs": [],
      "name": "EXTENDED_BALLOT_TYPEHASH",
      "outputs": [
        {
          "internalType": "bytes32",
          "name": "",
          "type": "bytes32"
        }
      ],
      "stateMutability": "view",
      "type": "function"
    },
    {
      "inputs": [],
      "name": "_votingDelay",
      "outputs": [
        {
          "internalType": "uint256",
          "name": "",
          "type": "uint256"
        }
      ],
      "stateMutability": "view",
      "type": "function"
    },
    {
      "inputs": [],
      "name": "_votingPeriod",
      "outputs": [
        {
          "internalType": "uint256",
          "name": "",
          "type": "uint256"
        }
      ],
      "stateMutability": "view",
      "type": "function"
    },
    {
      "inputs": [
        {
          "internalType": "uint256",
          "name": "proposalId",
          "type": "uint256"
        }
      ],
      "name": "cancel",
      "outputs": [],
      "stateMutability": "nonpayable",
      "type": "function"
    },
    {
      "inputs": [
        {
          "internalType": "uint256",
          "name": "proposalId",
          "type": "uint256"
        },
        {
          "internalType": "uint8",
          "name": "support",
          "type": "uint8"
        }
      ],
      "name": "castVote",
      "outputs": [
        {
          "internalType": "uint256",
          "name": "",
          "type": "uint256"
        }
      ],
      "stateMutability": "nonpayable",
      "type": "function"
    },
    {
      "inputs": [
        {
          "internalType": "uint256",
          "name": "proposalId",
          "type": "uint256"
        },
        {
          "internalType": "uint8",
          "name": "support",
          "type": "uint8"
        },
        {
          "internalType": "uint8",
          "name": "v",
          "type": "uint8"
        },
        {
          "internalType": "bytes32",
          "name": "r",
          "type": "bytes32"
        },
        {
          "internalType": "bytes32",
          "name": "s",
          "type": "bytes32"
        }
      ],
      "name": "castVoteBySig",
      "outputs": [
        {
          "internalType": "uint256",
          "name": "",
          "type": "uint256"
        }
      ],
      "stateMutability": "nonpayable",
      "type": "function"
    },
    {
      "inputs": [
        {
          "internalType": "uint256",
          "name": "proposalId",
          "type": "uint256"
        },
        {
          "internalType": "uint8",
          "name": "support",
          "type": "uint8"
        },
        {
          "internalType": "string",
          "name": "reason",
          "type": "string"
        }
      ],
      "name": "castVoteWithReason",
      "outputs": [
        {
          "internalType": "uint256",
          "name": "",
          "type": "uint256"
        }
      ],
      "stateMutability": "nonpayable",
      "type": "function"
    },
    {
      "inputs": [
        {
          "internalType": "uint256",
          "name": "proposalId",
          "type": "uint256"
        },
        {
          "internalType": "uint8",
          "name": "support",
          "type": "uint8"
        },
        {
          "internalType": "string",
          "name": "reason",
          "type": "string"
        },
        {
          "internalType": "bytes",
          "name": "params",
          "type": "bytes"
        }
      ],
      "name": "castVoteWithReasonAndParams",
      "outputs": [
        {
          "internalType": "uint256",
          "name": "",
          "type": "uint256"
        }
      ],
      "stateMutability": "nonpayable",
      "type": "function"
    },
    {
      "inputs": [
        {
          "internalType": "uint256",
          "name": "proposalId",
          "type": "uint256"
        },
        {
          "internalType": "uint8",
          "name": "support",
          "type": "uint8"
        },
        {
          "internalType": "string",
          "name": "reason",
          "type": "string"
        },
        {
          "internalType": "bytes",
          "name": "params",
          "type": "bytes"
        },
        {
          "internalType": "uint8",
          "name": "v",
          "type": "uint8"
        },
        {
          "internalType": "bytes32",
          "name": "r",
          "type": "bytes32"
        },
        {
          "internalType": "bytes32",
          "name": "s",
          "type": "bytes32"
        }
      ],
      "name": "castVoteWithReasonAndParamsBySig",
      "outputs": [
        {
          "internalType": "uint256",
          "name": "",
          "type": "uint256"
        }
      ],
      "stateMutability": "nonpayable",
      "type": "function"
    },
    {
      "inputs": [
        {
          "internalType": "address[]",
          "name": "targets",
          "type": "address[]"
        },
        {
          "internalType": "uint256[]",
          "name": "values",
          "type": "uint256[]"
        },
        {
          "internalType": "bytes[]",
          "name": "calldatas",
          "type": "bytes[]"
        },
        {
          "internalType": "bytes32",
          "name": "descriptionHash",
          "type": "bytes32"
        }
      ],
      "name": "execute",
      "outputs": [
        {
          "internalType": "uint256",
          "name": "",
          "type": "uint256"
        }
      ],
      "stateMutability": "payable",
      "type": "function"
    },
    {
      "inputs": [
        {
          "internalType": "uint256",
          "name": "proposalId",
          "type": "uint256"
        }
      ],
      "name": "execute",
      "outputs": [],
      "stateMutability": "payable",
      "type": "function"
    },
    {
      "inputs": [
        {
          "internalType": "uint256",
          "name": "proposalId",
          "type": "uint256"
        }
      ],
      "name": "getActions",
      "outputs": [
        {
          "internalType": "address[]",
          "name": "targets",
          "type": "address[]"
        },
        {
          "internalType": "uint256[]",
          "name": "values",
          "type": "uint256[]"
        },
        {
          "internalType": "string[]",
          "name": "signatures",
          "type": "string[]"
        },
        {
          "internalType": "bytes[]",
          "name": "calldatas",
          "type": "bytes[]"
        }
      ],
      "stateMutability": "view",
      "type": "function"
    },
    {
      "inputs": [
        {
          "internalType": "uint256",
          "name": "proposalId",
          "type": "uint256"
        },
        {
          "internalType": "address",
          "name": "voter",
          "type": "address"
        }
      ],
      "name": "getReceipt",
      "outputs": [
        {
          "components": [
            {
              "internalType": "bool",
              "name": "hasVoted",
              "type": "bool"
            },
            {
              "internalType": "uint8",
              "name": "support",
              "type": "uint8"
            },
            {
              "internalType": "uint96",
              "name": "votes",
              "type": "uint96"
            }
          ],
          "internalType": "struct IGovernorCompatibilityBravo.Receipt",
          "name": "",
          "type": "tuple"
        }
      ],
      "stateMutability": "view",
      "type": "function"
    },
    {
      "inputs": [
        {
          "internalType": "address",
          "name": "account",
          "type": "address"
        },
        {
          "internalType": "uint256",
          "name": "blockNumber",
          "type": "uint256"
        }
      ],
      "name": "getVotes",
      "outputs": [
        {
          "internalType": "uint256",
          "name": "",
          "type": "uint256"
        }
      ],
      "stateMutability": "view",
      "type": "function"
    },
    {
      "inputs": [
        {
          "internalType": "address",
          "name": "account",
          "type": "address"
        },
        {
          "internalType": "uint256",
          "name": "blockNumber",
          "type": "uint256"
        },
        {
          "internalType": "bytes",
          "name": "params",
          "type": "bytes"
        }
      ],
      "name": "getVotesWithParams",
      "outputs": [
        {
          "internalType": "uint256",
          "name": "",
          "type": "uint256"
        }
      ],
      "stateMutability": "view",
      "type": "function"
    },
    {
      "inputs": [
        {
          "internalType": "uint256",
          "name": "proposalId",
          "type": "uint256"
        },
        {
          "internalType": "address",
          "name": "account",
          "type": "address"
        }
      ],
      "name": "hasVoted",
      "outputs": [
        {
          "internalType": "bool",
          "name": "",
          "type": "bool"
        }
      ],
      "stateMutability": "view",
      "type": "function"
    },
    {
      "inputs": [
        {
          "internalType": "address[]",
          "name": "targets",
          "type": "address[]"
        },
        {
          "internalType": "uint256[]",
          "name": "values",
          "type": "uint256[]"
        },
        {
          "internalType": "bytes[]",
          "name": "calldatas",
          "type": "bytes[]"
        },
        {
          "internalType": "bytes32",
          "name": "descriptionHash",
          "type": "bytes32"
        }
      ],
      "name": "hashProposal",
      "outputs": [
        {
          "internalType": "uint256",
          "name": "",
          "type": "uint256"
        }
      ],
      "stateMutability": "pure",
      "type": "function"
    },
    {
      "inputs": [],
      "name": "name",
      "outputs": [
        {
          "internalType": "string",
          "name": "",
          "type": "string"
        }
      ],
      "stateMutability": "view",
      "type": "function"
    },
    {
      "inputs": [
        {
          "internalType": "address",
          "name": "",
          "type": "address"
        },
        {
          "internalType": "address",
          "name": "",
          "type": "address"
        },
        {
          "internalType": "uint256[]",
          "name": "",
          "type": "uint256[]"
        },
        {
          "internalType": "uint256[]",
          "name": "",
          "type": "uint256[]"
        },
        {
          "internalType": "bytes",
          "name": "",
          "type": "bytes"
        }
      ],
      "name": "onERC1155BatchReceived",
      "outputs": [
        {
          "internalType": "bytes4",
          "name": "",
          "type": "bytes4"
        }
      ],
      "stateMutability": "nonpayable",
      "type": "function"
    },
    {
      "inputs": [
        {
          "internalType": "address",
          "name": "",
          "type": "address"
        },
        {
          "internalType": "address",
          "name": "",
          "type": "address"
        },
        {
          "internalType": "uint256",
          "name": "",
          "type": "uint256"
        },
        {
          "internalType": "uint256",
          "name": "",
          "type": "uint256"
        },
        {
          "internalType": "bytes",
          "name": "",
          "type": "bytes"
        }
      ],
      "name": "onERC1155Received",
      "outputs": [
        {
          "internalType": "bytes4",
          "name": "",
          "type": "bytes4"
        }
      ],
      "stateMutability": "nonpayable",
      "type": "function"
    },
    {
      "inputs": [
        {
          "internalType": "address",
          "name": "",
          "type": "address"
        },
        {
          "internalType": "address",
          "name": "",
          "type": "address"
        },
        {
          "internalType": "uint256",
          "name": "",
          "type": "uint256"
        },
        {
          "internalType": "bytes",
          "name": "",
          "type": "bytes"
        }
      ],
      "name": "onERC721Received",
      "outputs": [
        {
          "internalType": "bytes4",
          "name": "",
          "type": "bytes4"
        }
      ],
      "stateMutability": "nonpayable",
      "type": "function"
    },
    {
      "inputs": [
        {
          "internalType": "uint256",
          "name": "proposalId",
          "type": "uint256"
        }
      ],
      "name": "proposalDeadline",
      "outputs": [
        {
          "internalType": "uint256",
          "name": "",
          "type": "uint256"
        }
      ],
      "stateMutability": "view",
      "type": "function"
    },
    {
      "inputs": [
        {
          "internalType": "uint256",
          "name": "proposalId",
          "type": "uint256"
        }
      ],
      "name": "proposalEta",
      "outputs": [
        {
          "internalType": "uint256",
          "name": "",
          "type": "uint256"
        }
      ],
      "stateMutability": "view",
      "type": "function"
    },
    {
      "inputs": [
        {
          "internalType": "uint256",
          "name": "proposalId",
          "type": "uint256"
        }
      ],
      "name": "proposalSnapshot",
      "outputs": [
        {
          "internalType": "uint256",
          "name": "",
          "type": "uint256"
        }
      ],
      "stateMutability": "view",
      "type": "function"
    },
    {
      "inputs": [],
      "name": "proposalThreshold",
      "outputs": [
        {
          "internalType": "uint256",
          "name": "",
          "type": "uint256"
        }
      ],
      "stateMutability": "pure",
      "type": "function"
    },
    {
      "inputs": [
        {
          "internalType": "uint256",
          "name": "proposalId",
          "type": "uint256"
        }
      ],
      "name": "proposals",
      "outputs": [
        {
          "internalType": "uint256",
          "name": "id",
          "type": "uint256"
        },
        {
          "internalType": "address",
          "name": "proposer",
          "type": "address"
        },
        {
          "internalType": "uint256",
          "name": "eta",
          "type": "uint256"
        },
        {
          "internalType": "uint256",
          "name": "startBlock",
          "type": "uint256"
        },
        {
          "internalType": "uint256",
          "name": "endBlock",
          "type": "uint256"
        },
        {
          "internalType": "uint256",
          "name": "forVotes",
          "type": "uint256"
        },
        {
          "internalType": "uint256",
          "name": "againstVotes",
          "type": "uint256"
        },
        {
          "internalType": "uint256",
          "name": "abstainVotes",
          "type": "uint256"
        },
        {
          "internalType": "bool",
          "name": "canceled",
          "type": "bool"
        },
        {
          "internalType": "bool",
          "name": "executed",
          "type": "bool"
        }
      ],
      "stateMutability": "view",
      "type": "function"
    },
    {
      "inputs": [
        {
          "internalType": "address[]",
          "name": "targets",
          "type": "address[]"
        },
        {
          "internalType": "uint256[]",
          "name": "values",
          "type": "uint256[]"
        },
        {
          "internalType": "bytes[]",
          "name": "calldatas",
          "type": "bytes[]"
        },
        {
          "internalType": "string",
          "name": "description",
          "type": "string"
        }
      ],
      "name": "propose",
      "outputs": [
        {
          "internalType": "uint256",
          "name": "",
          "type": "uint256"
        }
      ],
      "stateMutability": "nonpayable",
      "type": "function"
    },
    {
      "inputs": [
        {
          "internalType": "address[]",
          "name": "targets",
          "type": "address[]"
        },
        {
          "internalType": "uint256[]",
          "name": "values",
          "type": "uint256[]"
        },
        {
          "internalType": "string[]",
          "name": "signatures",
          "type": "string[]"
        },
        {
          "internalType": "bytes[]",
          "name": "calldatas",
          "type": "bytes[]"
        },
        {
          "internalType": "string",
          "name": "description",
          "type": "string"
        }
      ],
      "name": "propose",
      "outputs": [
        {
          "internalType": "uint256",
          "name": "",
          "type": "uint256"
        }
      ],
      "stateMutability": "nonpayable",
      "type": "function"
    },
    {
      "inputs": [
        {
          "internalType": "address[]",
          "name": "targets",
          "type": "address[]"
        },
        {
          "internalType": "uint256[]",
          "name": "values",
          "type": "uint256[]"
        },
        {
          "internalType": "bytes[]",
          "name": "calldatas",
          "type": "bytes[]"
        },
        {
          "internalType": "bytes32",
          "name": "descriptionHash",
          "type": "bytes32"
        }
      ],
      "name": "queue",
      "outputs": [
        {
          "internalType": "uint256",
          "name": "",
          "type": "uint256"
        }
      ],
      "stateMutability": "nonpayable",
      "type": "function"
    },
    {
      "inputs": [
        {
          "internalType": "uint256",
          "name": "proposalId",
          "type": "uint256"
        }
      ],
      "name": "queue",
      "outputs": [],
      "stateMutability": "nonpayable",
      "type": "function"
    },
    {
      "inputs": [
        {
          "internalType": "uint256",
          "name": "blockNumber",
          "type": "uint256"
        }
      ],
      "name": "quorum",
      "outputs": [
        {
          "internalType": "uint256",
          "name": "",
          "type": "uint256"
        }
      ],
      "stateMutability": "view",
      "type": "function"
    },
    {
      "inputs": [],
      "name": "quorumDenominator",
      "outputs": [
        {
          "internalType": "uint256",
          "name": "",
          "type": "uint256"
        }
      ],
      "stateMutability": "view",
      "type": "function"
    },
    {
      "inputs": [],
      "name": "quorumNumerator",
      "outputs": [
        {
          "internalType": "uint256",
          "name": "",
          "type": "uint256"
        }
      ],
      "stateMutability": "view",
      "type": "function"
    },
    {
      "inputs": [],
      "name": "quorumVotes",
      "outputs": [
        {
          "internalType": "uint256",
          "name": "",
          "type": "uint256"
        }
      ],
      "stateMutability": "view",
      "type": "function"
    },
    {
      "inputs": [
        {
          "internalType": "address",
          "name": "target",
          "type": "address"
        },
        {
          "internalType": "uint256",
          "name": "value",
          "type": "uint256"
        },
        {
          "internalType": "bytes",
          "name": "data",
          "type": "bytes"
        }
      ],
      "name": "relay",
      "outputs": [],
      "stateMutability": "nonpayable",
      "type": "function"
    },
    {
      "inputs": [
        {
          "internalType": "uint256",
          "name": "proposalId",
          "type": "uint256"
        }
      ],
      "name": "state",
      "outputs": [
        {
          "internalType": "enum IGovernor.ProposalState",
          "name": "",
          "type": "uint8"
        }
      ],
      "stateMutability": "view",
      "type": "function"
    },
    {
      "inputs": [
        {
          "internalType": "bytes4",
          "name": "interfaceId",
          "type": "bytes4"
        }
      ],
      "name": "supportsInterface",
      "outputs": [
        {
          "internalType": "bool",
          "name": "",
          "type": "bool"
        }
      ],
      "stateMutability": "view",
      "type": "function"
    },
    {
      "inputs": [],
      "name": "timelock",
      "outputs": [
        {
          "internalType": "address",
          "name": "",
          "type": "address"
        }
      ],
      "stateMutability": "view",
      "type": "function"
    },
    {
      "inputs": [],
      "name": "token",
      "outputs": [
        {
          "internalType": "contract IVotes",
          "name": "",
          "type": "address"
        }
      ],
      "stateMutability": "view",
      "type": "function"
    },
    {
      "inputs": [
        {
          "internalType": "uint256",
          "name": "newQuorumNumerator",
          "type": "uint256"
        }
      ],
      "name": "updateQuorumNumerator",
      "outputs": [],
      "stateMutability": "nonpayable",
      "type": "function"
    },
    {
      "inputs": [
        {
          "internalType": "contract TimelockController",
          "name": "newTimelock",
          "type": "address"
        }
      ],
      "name": "updateTimelock",
      "outputs": [],
      "stateMutability": "nonpayable",
      "type": "function"
    },
    {
      "inputs": [],
      "name": "version",
      "outputs": [
        {
          "internalType": "string",
          "name": "",
          "type": "string"
        }
      ],
      "stateMutability": "view",
      "type": "function"
    },
    {
      "inputs": [],
      "name": "votingDelay",
      "outputs": [
        {
          "internalType": "uint256",
          "name": "",
          "type": "uint256"
        }
      ],
      "stateMutability": "view",
      "type": "function"
    },
    {
      "inputs": [],
      "name": "votingPeriod",
      "outputs": [
        {
          "internalType": "uint256",
          "name": "",
          "type": "uint256"
        }
      ],
      "stateMutability": "view",
      "type": "function"
    },
    {
      "stateMutability": "payable",
      "type": "receive"
    }
  ],
  "transactionHash": "0x64cf9c2cb5fcbd9e6979a05b8980c45887daca89961116bc24f5521b2ebc4a61",
  "args": [
    "0x8cc06b61002b51062c6d64a3d8fc31691786BdEB",
    51,
    20,
    20,
    "0xD90C5B89d6b72681c7C66c281A7aaf54BaAE19D6"
  ],
  "numDeployments": 1,
  "solcInputHash": "bd220f6d2a0bcb1b5a3256ee7713e5d1",
  "bytecode": "0x6101606040523480156200001257600080fd5b5060405162004e6238038062004e62833981016040819052620000359162000357565b8084866040518060400160405280600881526020016723b7bb32b93737b960c11b815250806200006a6200014760201b60201c565b815160208084019190912082518383012060e08290526101008190524660a0818152604080517f8b73c3c69bb8fe3d512ecc4cf759cc79239f7b179b0ffacaa9a75d522b39400f81880181905281830187905260608201869052608082019490945230818401528151808203909301835260c00190528051940193909320919290916080523060c052610120525050825162000110925060009150602084019062000298565b50506001600160a01b0316610140526200012a8162000162565b5062000136816200022f565b505060085560095550620003f19050565b6040805180820190915260018152603160f81b602082015290565b6064811115620001ea5760405162461bcd60e51b815260206004820152604360248201527f476f7665726e6f72566f74657351756f72756d4672616374696f6e3a2071756f60448201527f72756d4e756d657261746f72206f7665722071756f72756d44656e6f6d696e616064820152623a37b960e91b608482015260a40160405180910390fd5b600580549082905560408051828152602081018490527f0553476bf02ef2726e8ce5ced78d63e26e602e4a2257b1f559418e24b4633997910160405180910390a15050565b600654604080516001600160a01b03928316815291831660208301527f08f74ea46ef7894f65eabfb5e6e695de773a000b47c529ab559178069b226401910160405180910390a1600680546001600160a01b0319166001600160a01b0392909216919091179055565b828054620002a690620003b4565b90600052602060002090601f016020900481019282620002ca576000855562000315565b82601f10620002e557805160ff191683800117855562000315565b8280016001018555821562000315579182015b8281111562000315578251825591602001919060010190620002f8565b506200032392915062000327565b5090565b5b8082111562000323576000815560010162000328565b6001600160a01b03811681146200035457600080fd5b50565b600080600080600060a086880312156200037057600080fd5b85516200037d816200033e565b809550506020860151935060408601519250606086015191506080860151620003a6816200033e565b809150509295509295909350565b600181811c90821680620003c957607f821691505b60208210811415620003eb57634e487b7160e01b600052602260045260246000fd5b50919050565b60805160a05160c05160e051610100516101205161014051614a086200045a600039600081816109e401528181612678015261287e01526000612a0901526000612a5801526000612a330152600061298c015260006129b6015260006129e00152614a086000f3fe6080604052600436106102815760003560e01c80639199907a1161014f578063d33219b4116100c1578063e4cdd80e1161007a578063e4cdd80e14610950578063eb9019d414610966578063f23a6e6114610986578063f8ce560a146109b2578063fc0c546a146109d2578063fe0d94c114610a0657600080fd5b8063d33219b41461079a578063da95691a146107cc578063dd4e2ba5146107ec578063ddf0b00914610832578063deaaa7cc14610852578063e23a9a521461088657600080fd5b8063ab58fb8e11610113578063ab58fb8e146106da578063b58131b0146106fa578063bc197c811461070e578063c01f9e371461073a578063c28bc2fa1461075a578063c59057e41461077a57600080fd5b80639199907a1461065b57806397c3d334146106715780639a802a6d14610685578063a7713a70146106a5578063a890c910146106ba57600080fd5b80632fe3e261116101f357806343859632116101ac578063438596321461056757806354fd4d50146105b157806356781388146105db5780635f398a14146105fb5780637b3c71d31461061b5780637d5e81e21461063b57600080fd5b80632fe3e26114610481578063328dd982146104b55780633932abb1146104e55780633bccf4fd146104fa5780633e4f49e61461051a57806340e58ee51461054757600080fd5b806306fdde031161024557806306fdde03146103b3578063150b7a02146103d5578063160cbed71461041957806324bc1a64146104395780632656227d1461044e5780632d63f6931461046157600080fd5b8063013cf08b146102a957806301ffc9a71461032457806302a251a314610354578063034201811461037357806306f3f9e61461039357600080fd5b366102a4573061028f610a19565b6001600160a01b0316146102a257600080fd5b005b600080fd5b3480156102b557600080fd5b506102c96102c43660046139d5565b610a32565b604080519a8b526001600160a01b0390991660208b0152978901969096526060880194909452608087019290925260a086015260c085015260e084015215156101008301521515610120820152610140015b60405180910390f35b34801561033057600080fd5b5061034461033f3660046139ee565b610adb565b604051901515815260200161031b565b34801561036057600080fd5b506009545b60405190815260200161031b565b34801561037f57600080fd5b5061036561038e366004613b2b565b610aec565b34801561039f57600080fd5b506102a26103ae3660046139d5565b610be4565b3480156103bf57600080fd5b506103c8610c7c565b60405161031b9190613c2d565b3480156103e157600080fd5b506104006103f0366004613c55565b630a85bd0160e11b949350505050565b6040516001600160e01b0319909116815260200161031b565b34801561042557600080fd5b50610365610434366004613e31565b610d0e565b34801561044557600080fd5b50610365610f2d565b61036561045c366004613e31565b610f3d565b34801561046d57600080fd5b5061036561047c3660046139d5565b61102a565b34801561048d57600080fd5b506103657fb3b3f3b703cd84ce352197dcff232b1b5d3cfb2025ce47cf04742d0651f1af8881565b3480156104c157600080fd5b506104d56104d03660046139d5565b611061565b60405161031b9493929190613f89565b3480156104f157600080fd5b50600854610365565b34801561050657600080fd5b50610365610515366004613fd6565b6112f2565b34801561052657600080fd5b5061053a6105353660046139d5565b611368565b60405161031b919061403a565b34801561055357600080fd5b506102a26105623660046139d5565b611373565b34801561057357600080fd5b50610344610582366004614062565b60008281526004602090815260408083206001600160a01b038516845260080190915290205460ff1692915050565b3480156105bd57600080fd5b506040805180820190915260018152603160f81b60208201526103c8565b3480156105e757600080fd5b506103656105f6366004614092565b611685565b34801561060757600080fd5b506103656106163660046140be565b6116ae565b34801561062757600080fd5b50610365610636366004614141565b6116f8565b34801561064757600080fd5b5061036561065636600461419a565b61174a565b34801561066757600080fd5b5061036560095481565b34801561067d57600080fd5b506064610365565b34801561069157600080fd5b506103656106a036600461423a565b611761565b3480156106b157600080fd5b50600554610365565b3480156106c657600080fd5b506102a26106d5366004614292565b611778565b3480156106e657600080fd5b506103656106f53660046139d5565b611804565b34801561070657600080fd5b506001610365565b34801561071a57600080fd5b506104006107293660046142af565b63bc197c8160e01b95945050505050565b34801561074657600080fd5b506103656107553660046139d5565b6118ad565b34801561076657600080fd5b506102a2610775366004614342565b6118dc565b34801561078657600080fd5b50610365610795366004613e31565b6119a8565b3480156107a657600080fd5b506006546001600160a01b03165b6040516001600160a01b03909116815260200161031b565b3480156107d857600080fd5b506103656107e7366004614404565b6119e2565b3480156107f857600080fd5b5060408051808201909152601a81527f737570706f72743d627261766f2671756f72756d3d627261766f00000000000060208201526103c8565b34801561083e57600080fd5b506102a261084d3660046139d5565b611a07565b34801561085e57600080fd5b506103657f150214d74d59b7d1e90c73fc22ef3d991dd0a76b046543d4d80ab92d2a50328f81565b34801561089257600080fd5b506109206108a1366004614062565b60408051606081018252600080825260208201819052918101919091525060009182526004602090815260408084206001600160a01b0393909316845260089092018152918190208151606081018352905460ff8082161515835261010082041693820193909352620100009092046001600160601b03169082015290565b6040805182511515815260208084015160ff1690820152918101516001600160601b03169082015260600161031b565b34801561095c57600080fd5b5061036560085481565b34801561097257600080fd5b506103656109813660046144a5565b611c75565b34801561099257600080fd5b506104006109a13660046144d1565b63f23a6e6160e01b95945050505050565b3480156109be57600080fd5b506103656109cd3660046139d5565b611c81565b3480156109de57600080fd5b506107b47f000000000000000000000000000000000000000000000000000000000000000081565b6102a2610a143660046139d5565b611c8c565b6000610a2d6006546001600160a01b031690565b905090565b8060008080808080808080610a468a611804565b9750610a518b61102a565b9650610a5c8b6118ad565b60008c815260046020526040812080546005820154600683015460078401546001600160a01b039093169e50949a509850929650919450610a9c8d611368565b90506002816007811115610ab257610ab2614024565b1493506007816007811115610ac957610ac9614024565b14925050509193959799509193959799565b6000610ae682611efa565b92915050565b600080610b90610b887fb3b3f3b703cd84ce352197dcff232b1b5d3cfb2025ce47cf04742d0651f1af888c8c8c8c604051610b28929190614539565b60405180910390208b80519060200120604051602001610b6d959493929190948552602085019390935260ff9190911660408401526060830152608082015260a00190565b60405160208183030381529060405280519060200120611f1f565b868686611f6d565b9050610bd68a828b8b8b8080601f0160208091040260200160405190810160405280939291908181526020018383808284376000920191909152508d9250611f8b915050565b9a9950505050505050505050565b610bec610a19565b6001600160a01b0316336001600160a01b031614610c255760405162461bcd60e51b8152600401610c1c90614549565b60405180910390fd5b30610c2e610a19565b6001600160a01b031614610c705760008036604051610c4e929190614539565b604051809103902090505b80610c6460026120ed565b14610c6e57610c59565b505b610c798161216c565b50565b606060008054610c8b90614580565b80601f0160208091040260200160405190810160405280929190818152602001828054610cb790614580565b8015610d045780601f10610cd957610100808354040283529160200191610d04565b820191906000526020600020905b815481529060010190602001808311610ce757829003601f168201915b5050505050905090565b600080610d1d868686866119a8565b90506004610d2a82611368565b6007811115610d3b57610d3b614024565b14610d585760405162461bcd60e51b8152600401610c1c906145bb565b6006546040805163793d064960e11b815290516000926001600160a01b03169163f27a0c92916004808301926020929190829003018186803b158015610d9d57600080fd5b505afa158015610db1573d6000803e3d6000fd5b505050506040513d601f19601f82011682018060405250810190610dd591906145fc565b60065460405163b1c5f42760e01b81529192506001600160a01b03169063b1c5f42790610e0f908a908a908a906000908b90600401614615565b60206040518083038186803b158015610e2757600080fd5b505afa158015610e3b573d6000803e3d6000fd5b505050506040513d601f19601f82011682018060405250810190610e5f91906145fc565b6000838152600760205260408082209290925560065491516308f2a0bb60e41b81526001600160a01b0390921691638f2a0bb091610eaa918b918b918b91908b908990600401614663565b600060405180830381600087803b158015610ec457600080fd5b505af1158015610ed8573d6000803e3d6000fd5b505050507f9a2e42fd6722813d69113e7d0079d3d940171428df7373df9c7f7617cfda2892828242610f0a91906146d1565b604080519283526020830191909152015b60405180910390a15095945050505050565b6000610a2d6109cd6001436146e9565b600080610f4c868686866119a8565b90506000610f5982611368565b90506004816007811115610f6f57610f6f614024565b1480610f8c57506005816007811115610f8a57610f8a614024565b145b610fa85760405162461bcd60e51b8152600401610c1c906145bb565b600082815260016020818152604092839020600201805460ff191690921790915590518381527f712ae1383f79ac853f8d882153778e0260ef8f03b504e2866e0593e04d2b291f910160405180910390a16110068288888888612234565b61101382888888886122d6565b61102082888888886122e3565b5095945050505050565b60008181526001602090815260408083208151928301909152546001600160401b0316908190525b6001600160401b031692915050565b606080606080600060046000878152602001908152602001600020905080600101816002018260030183600401838054806020026020016040519081016040528092919081815260200182805480156110e357602002820191906000526020600020905b81546001600160a01b031681526001909101906020018083116110c5575b505050505093508280548060200260200160405190810160405280929190818152602001828054801561113557602002820191906000526020600020905b815481526020019060010190808311611121575b5050505050925081805480602002602001604051908101604052809291908181526020016000905b8282101561120957838290600052602060002001805461117c90614580565b80601f01602080910402602001604051908101604052809291908181526020018280546111a890614580565b80156111f55780601f106111ca576101008083540402835291602001916111f5565b820191906000526020600020905b8154815290600101906020018083116111d857829003601f168201915b50505050508152602001906001019061115d565b50505050915080805480602002602001604051908101604052809291908181526020016000905b828210156112dc57838290600052602060002001805461124f90614580565b80601f016020809104026020016040519081016040528092919081815260200182805461127b90614580565b80156112c85780601f1061129d576101008083540402835291602001916112c8565b820191906000526020600020905b8154815290600101906020018083116112ab57829003601f168201915b505050505081526020019060010190611230565b5050505090509450945094509450509193509193565b604080517f150214d74d59b7d1e90c73fc22ef3d991dd0a76b046543d4d80ab92d2a50328f602082015290810186905260ff85166060820152600090819061134090610b8890608001610b6d565b905061135d8782886040518060200160405280600081525061231c565b979650505050505050565b6000610ae68261233f565b600081815260046020526040902080546001600160a01b0316336001600160a01b031614806113bb5750600181546113b9906001600160a01b03166109816001436146e9565b105b6114175760405162461bcd60e51b815260206004820152602760248201527f476f7665726e6f72427261766f3a2070726f706f7365722061626f76652074686044820152661c995cda1bdb1960ca1b6064820152608401610c1c565b6116808160010180548060200260200160405190810160405280929190818152602001828054801561147257602002820191906000526020600020905b81546001600160a01b03168152600190910190602001808311611454575b5050505050826002018054806020026020016040519081016040528092919081815260200182805480156114c557602002820191906000526020600020905b8154815260200190600101908083116114b1575b505050505061167684600301805480602002602001604051908101604052809291908181526020016000905b8282101561159d57838290600052602060002001805461151090614580565b80601f016020809104026020016040519081016040528092919081815260200182805461153c90614580565b80156115895780601f1061155e57610100808354040283529160200191611589565b820191906000526020600020905b81548152906001019060200180831161156c57829003601f168201915b5050505050815260200190600101906114f1565b50505060048701805460408051602080840282018101909252828152935060009084015b8282101561166d5783829060005260206000200180546115e090614580565b80601f016020809104026020016040519081016040528092919081815260200182805461160c90614580565b80156116595780601f1061162e57610100808354040283529160200191611659565b820191906000526020600020905b81548152906001019060200180831161163c57829003601f168201915b5050505050815260200190600101906115c1565b505050506124a7565b84600901546125d9565b505050565b6000803390506116a68482856040518060200160405280600081525061231c565b949350505050565b60008033905061135d87828888888080601f0160208091040260200160405190810160405280939291908181526020018383808284376000920191909152508a9250611f8b915050565b60008033905061174086828787878080601f01602080910402602001604051908101604052809392919081815260200183838082843760009201919091525061231c92505050565b9695505050505050565b6000611758858585856125e7565b95945050505050565b600061176e84848461264f565b90505b9392505050565b611780610a19565b6001600160a01b0316336001600160a01b0316146117b05760405162461bcd60e51b8152600401610c1c90614549565b306117b9610a19565b6001600160a01b0316146117fb57600080366040516117d9929190614539565b604051809103902090505b806117ef60026120ed565b146117f9576117e4565b505b610c79816126f4565b60065460008281526007602052604080822054905163d45c443560e01b81526004810191909152909182916001600160a01b039091169063d45c44359060240160206040518083038186803b15801561185c57600080fd5b505afa158015611870573d6000803e3d6000fd5b505050506040513d601f19601f8201168201806040525081019061189491906145fc565b9050806001146118a45780611771565b60009392505050565b60008181526001602081815260408084208151928301909152909101546001600160401b031690819052611052565b6118e4610a19565b6001600160a01b0316336001600160a01b0316146119145760405162461bcd60e51b8152600401610c1c90614549565b3061191d610a19565b6001600160a01b03161461195f576000803660405161193d929190614539565b604051809103902090505b8061195360026120ed565b1461195d57611948565b505b6119a18483838080601f01602080910402602001604051908101604052809392919081815260200183838082843760009201919091525088925061275d915050565b5050505050565b6000848484846040516020016119c19493929190614700565b60408051601f19818403018152919052805160209091012095945050505050565b60006119f2338787878787612783565b6117408686611a0187876124a7565b8561174a565b600081815260046020908152604091829020600181018054845181850281018501909552808552919361168093909290830182828015611a7057602002820191906000526020600020905b81546001600160a01b03168152600190910190602001808311611a52575b505050505082600201805480602002602001604051908101604052809291908181526020018280548015611ac357602002820191906000526020600020905b815481526020019060010190808311611aaf575b5050505050611c6b84600301805480602002602001604051908101604052809291908181526020016000905b82821015611b9b578382906000526020600020018054611b0e90614580565b80601f0160208091040260200160405190810160405280929190818152602001828054611b3a90614580565b8015611b875780601f10611b5c57610100808354040283529160200191611b87565b820191906000526020600020905b815481529060010190602001808311611b6a57829003601f168201915b505050505081526020019060010190611aef565b50505060048701805460408051602080840282018101909252828152935060009084015b8282101561166d578382906000526020600020018054611bde90614580565b80601f0160208091040260200160405190810160405280929190818152602001828054611c0a90614580565b8015611c575780601f10611c2c57610100808354040283529160200191611c57565b820191906000526020600020905b815481529060010190602001808311611c3a57829003601f168201915b505050505081526020019060010190611bbf565b8460090154610d0e565b60006117718383612840565b6000610ae682612861565b600081815260046020908152604091829020600181018054845181850281018501909552808552919361168093909290830182828015611cf557602002820191906000526020600020905b81546001600160a01b03168152600190910190602001808311611cd7575b505050505082600201805480602002602001604051908101604052809291908181526020018280548015611d4857602002820191906000526020600020905b815481526020019060010190808311611d34575b5050505050611ef084600301805480602002602001604051908101604052809291908181526020016000905b82821015611e20578382906000526020600020018054611d9390614580565b80601f0160208091040260200160405190810160405280929190818152602001828054611dbf90614580565b8015611e0c5780601f10611de157610100808354040283529160200191611e0c565b820191906000526020600020905b815481529060010190602001808311611def57829003601f168201915b505050505081526020019060010190611d74565b50505060048701805460408051602080840282018101909252828152935060009084015b8282101561166d578382906000526020600020018054611e6390614580565b80601f0160208091040260200160405190810160405280929190818152602001828054611e8f90614580565b8015611edc5780601f10611eb157610100808354040283529160200191611edc565b820191906000526020600020905b815481529060010190602001808311611ebf57829003601f168201915b505050505081526020019060010190611e44565b8460090154610f3d565b60006001600160e01b03198216636e665ced60e01b1480610ae65750610ae682612914565b6000610ae6611f2c61297f565b8360405161190160f01b6020820152602281018390526042810182905260009060620160405160208183030381529060405280519060200120905092915050565b6000806000611f7e87878787612aa6565b9150915061102081612b93565b6000858152600160208190526040822090611fa588611368565b6007811115611fb657611fb6614024565b1461200f5760405162461bcd60e51b815260206004820152602360248201527f476f7665726e6f723a20766f7465206e6f742063757272656e746c792061637460448201526269766560e81b6064820152608401610c1c565b604080516020810190915281546001600160401b0316908190526000906120389088908661264f565b90506120478888888488612d4e565b835161209957866001600160a01b03167fb8e138887d0aa13bab447e82de9d5c1777041ecd21ca36ba824ff1e6c07ddda48988848960405161208c949392919061474b565b60405180910390a261135d565b866001600160a01b03167fe2babfbac5889a709b63bb7f598b324e08bc5a4fb9ec647fb3cbc9ec07eb871289888489896040516120da959493929190614773565b60405180910390a2979650505050505050565b60006121088254600f81810b600160801b909204900b131590565b1561212657604051631ed9509560e11b815260040160405180910390fd5b508054600f0b6000818152600180840160205260408220805492905583546fffffffffffffffffffffffffffffffff191692016001600160801b03169190911790915590565b60648111156121ef5760405162461bcd60e51b815260206004820152604360248201527f476f7665726e6f72566f74657351756f72756d4672616374696f6e3a2071756f60448201527f72756d4e756d657261746f72206f7665722071756f72756d44656e6f6d696e616064820152623a37b960e91b608482015260a401610c1c565b600580549082905560408051828152602081018490527f0553476bf02ef2726e8ce5ced78d63e26e602e4a2257b1f559418e24b4633997910160405180910390a15050565b3061223d610a19565b6001600160a01b0316146119a15760005b84518110156122ce57306001600160a01b0316858281518110612273576122736147b9565b60200260200101516001600160a01b031614156122be576122be83828151811061229f5761229f6147b9565b6020026020010151805190602001206002612ef490919063ffffffff16565b6122c7816147cf565b905061224e565b505050505050565b6119a18585858585612f30565b306122ec610a19565b6001600160a01b0316146119a157600254600f81810b600160801b909204900b13156119a15760006002556119a1565b60006117588585858561233a60408051602081019091526000815290565b611f8b565b60008061234b83612fa4565b9050600481600781111561236157612361614024565b1461236c5792915050565b60008381526007602052604090205480612387575092915050565b600654604051632ab0f52960e01b8152600481018390526001600160a01b0390911690632ab0f5299060240160206040518083038186803b1580156123cb57600080fd5b505afa1580156123df573d6000803e3d6000fd5b505050506040513d601f19601f8201168201806040525081019061240391906147ea565b15612412575060079392505050565b600654604051632c258a9f60e11b8152600481018390526001600160a01b039091169063584b153e9060240160206040518083038186803b15801561245657600080fd5b505afa15801561246a573d6000803e3d6000fd5b505050506040513d601f19601f8201168201806040525081019061248e91906147ea565b1561249d575060059392505050565b5060029392505050565b6060600082516001600160401b038111156124c4576124c4613a76565b6040519080825280602002602001820160405280156124f757816020015b60608152602001906001900390816124e25790505b50905060005b84518110156125d157848181518110612518576125186147b9565b6020026020010151516000146125885784818151811061253a5761253a6147b9565b60200260200101518051906020012084828151811061255b5761255b6147b9565b602002602001015160405160200161257492919061480c565b6040516020818303038152906040526125a3565b83818151811061259a5761259a6147b9565b60200260200101515b8282815181106125b5576125b56147b9565b6020026020010181905250806125ca906147cf565b90506124fd565b509392505050565b6000611758858585856130b3565b600061264333868686516001600160401b0381111561260857612608613a76565b60405190808252806020026020018201604052801561263b57816020015b60608152602001906001900390816126265790505b508787612783565b61175885858585613165565b604051630748d63560e31b81526001600160a01b038481166004830152602482018490526000917f000000000000000000000000000000000000000000000000000000000000000090911690633a46b1a89060440160206040518083038186803b1580156126bc57600080fd5b505afa1580156126d0573d6000803e3d6000fd5b505050506040513d601f19601f8201168201806040525081019061176e91906145fc565b600654604080516001600160a01b03928316815291831660208301527f08f74ea46ef7894f65eabfb5e6e695de773a000b47c529ab559178069b226401910160405180910390a1600680546001600160a01b0319166001600160a01b0392909216919091179055565b606061176e8484846040518060600160405280602981526020016149aa60299139613424565b8051602082012060006127a1878761279b88886124a7565b856119a8565b60008181526004602052604090206009810154919250906128355780546001600160a01b0319166001600160a01b038a1617815587516127ea90600183019060208b019061378b565b50865161280090600283019060208a01906137ec565b5085516128169060038301906020890190613827565b50845161282c9060048301906020880190613880565b50600981018390555b505050505050505050565b6000611771838361285c60408051602081019091526000815290565b61264f565b60006064600554604051632394e7a360e21b8152600481018590527f00000000000000000000000000000000000000000000000000000000000000006001600160a01b031690638e539e8c9060240160206040518083038186803b1580156128c857600080fd5b505afa1580156128dc573d6000803e3d6000fd5b505050506040513d601f19601f8201168201806040525081019061290091906145fc565b61290a919061483d565b610ae6919061485c565b60006001600160e01b0319821663bf26d89760e01b148061294557506001600160e01b031982166379dd796f60e01b145b8061296057506001600160e01b03198216630271189760e51b145b80610ae657506301ffc9a760e01b6001600160e01b0319831614610ae6565b6000306001600160a01b037f0000000000000000000000000000000000000000000000000000000000000000161480156129d857507f000000000000000000000000000000000000000000000000000000000000000046145b15612a0257507f000000000000000000000000000000000000000000000000000000000000000090565b50604080517f00000000000000000000000000000000000000000000000000000000000000006020808301919091527f0000000000000000000000000000000000000000000000000000000000000000828401527f000000000000000000000000000000000000000000000000000000000000000060608301524660808301523060a0808401919091528351808403909101815260c0909201909252805191012090565b6000807f7fffffffffffffffffffffffffffffff5d576e7357a4501ddfe92f46681b20a0831115612add5750600090506003612b8a565b8460ff16601b14158015612af557508460ff16601c14155b15612b065750600090506004612b8a565b6040805160008082526020820180845289905260ff881692820192909252606081018690526080810185905260019060a0016020604051602081039080840390855afa158015612b5a573d6000803e3d6000fd5b5050604051601f1901519150506001600160a01b038116612b8357600060019250925050612b8a565b9150600090505b94509492505050565b6000816004811115612ba757612ba7614024565b1415612bb05750565b6001816004811115612bc457612bc4614024565b1415612c125760405162461bcd60e51b815260206004820152601860248201527f45434453413a20696e76616c6964207369676e617475726500000000000000006044820152606401610c1c565b6002816004811115612c2657612c26614024565b1415612c745760405162461bcd60e51b815260206004820152601f60248201527f45434453413a20696e76616c6964207369676e6174757265206c656e677468006044820152606401610c1c565b6003816004811115612c8857612c88614024565b1415612ce15760405162461bcd60e51b815260206004820152602260248201527f45434453413a20696e76616c6964207369676e6174757265202773272076616c604482015261756560f01b6064820152608401610c1c565b6004816004811115612cf557612cf5614024565b1415610c795760405162461bcd60e51b815260206004820152602260248201527f45434453413a20696e76616c6964207369676e6174757265202776272076616c604482015261756560f01b6064820152608401610c1c565b60008581526004602090815260408083206001600160a01b038816845260088101909252909120805460ff1615612ddd5760405162461bcd60e51b815260206004820152602d60248201527f476f7665726e6f72436f6d7061746962696c697479427261766f3a20766f746560448201526c08185b1c9958591e4818d85cdd609a1b6064820152608401610c1c565b805460ff86166101000261ffff19909116176001178155612dfd8461354a565b81546001600160601b039190911662010000026dffffffffffffffffffffffff00001990911617815560ff8516612e4d5783826006016000828254612e4291906146d1565b90915550612eeb9050565b60ff851660011415612e6d5783826005016000828254612e4291906146d1565b60ff851660021415612e8d5783826007016000828254612e4291906146d1565b60405162461bcd60e51b815260206004820152602d60248201527f476f7665726e6f72436f6d7061746962696c697479427261766f3a20696e766160448201526c6c696420766f7465207479706560981b6064820152608401610c1c565b50505050505050565b8154600160801b90819004600f0b6000818152600180860160205260409091209390935583546001600160801b03908116939091011602179055565b60065460405163e38335e560e01b81526001600160a01b039091169063e38335e5903490612f6b908890889088906000908990600401614615565b6000604051808303818588803b158015612f8457600080fd5b505af1158015612f98573d6000803e3d6000fd5b50505050505050505050565b6000818152600160205260408120600281015460ff1615612fc85750600792915050565b6002810154610100900460ff1615612fe35750600292915050565b6000612fee8461102a565b90508061303d5760405162461bcd60e51b815260206004820152601d60248201527f476f7665726e6f723a20756e6b6e6f776e2070726f706f73616c2069640000006044820152606401610c1c565b43811061304e575060009392505050565b6000613059856118ad565b905043811061306d57506001949350505050565b613076856135b6565b8015613098575060008581526004602052604090206006810154600590910154115b156130a857506004949350505050565b506003949350505050565b6000806130c2868686866135de565b60008181526007602052604090205490915015611758576006546000828152600760205260409081902054905163c4d252f560e01b81526001600160a01b039092169163c4d252f59161311b9160040190815260200190565b600060405180830381600087803b15801561313557600080fd5b505af1158015613149573d6000803e3d6000fd5b5050506000828152600760205260408120555095945050505050565b60006001613178336109816001436146e9565b10156131e05760405162461bcd60e51b815260206004820152603160248201527f476f7665726e6f723a2070726f706f73657220766f7465732062656c6f7720706044820152701c9bdc1bdcd85b081d1a1c995cda1bdb19607a1b6064820152608401610c1c565b60006131f586868686805190602001206119a8565b905084518651146132185760405162461bcd60e51b8152600401610c1c9061487e565b83518651146132395760405162461bcd60e51b8152600401610c1c9061487e565b600086511161328a5760405162461bcd60e51b815260206004820152601860248201527f476f7665726e6f723a20656d7074792070726f706f73616c00000000000000006044820152606401610c1c565b600081815260016020908152604091829020825191820190925281546001600160401b0316908190521561330a5760405162461bcd60e51b815260206004820152602160248201527f476f7665726e6f723a2070726f706f73616c20616c72656164792065786973746044820152607360f81b6064820152608401610c1c565b600061331d61331860085490565b6136ea565b613326436136ea565b61333091906148bf565b9050600061334061331860095490565b61334a90836148bf565b835467ffffffffffffffff19166001600160401b038416178455905060018301805467ffffffffffffffff19166001600160401b0383161790557f7d84a6263ae0d98d3329bd7b46bb4e8d6f98cd35a7adb45c274c8b7fd5ebd5e084338b8b8d516001600160401b038111156133c2576133c2613a76565b6040519080825280602002602001820160405280156133f557816020015b60608152602001906001900390816133e05790505b508c88888e60405161340f999897969594939291906148ea565b60405180910390a15091979650505050505050565b6060824710156134855760405162461bcd60e51b815260206004820152602660248201527f416464726573733a20696e73756666696369656e742062616c616e636520666f6044820152651c8818d85b1b60d21b6064820152608401610c1c565b6001600160a01b0385163b6134dc5760405162461bcd60e51b815260206004820152601d60248201527f416464726573733a2063616c6c20746f206e6f6e2d636f6e74726163740000006044820152606401610c1c565b600080866001600160a01b031685876040516134f8919061498d565b60006040518083038185875af1925050503d8060008114613535576040519150601f19603f3d011682016040523d82523d6000602084013e61353a565b606091505b509150915061135d828286613752565b60006001600160601b038211156135b25760405162461bcd60e51b815260206004820152602660248201527f53616665436173743a2076616c756520646f65736e27742066697420696e203960448201526536206269747360d01b6064820152608401610c1c565b5090565b600081815260046020526040812060058101546135d56109cd8561102a565b11159392505050565b6000806135ed868686866119a8565b905060006135fa82611368565b9050600281600781111561361057613610614024565b141580156136305750600681600781111561362d5761362d614024565b14155b801561364e5750600781600781111561364b5761364b614024565b14155b61369a5760405162461bcd60e51b815260206004820152601d60248201527f476f7665726e6f723a2070726f706f73616c206e6f74206163746976650000006044820152606401610c1c565b60008281526001602052604090819020600201805461ff001916610100179055517f789cf55be980739dad1d0699b93b58e806b51c9d96619bfa8fe0a28abaa7b30c90610f1b9084815260200190565b60006001600160401b038211156135b25760405162461bcd60e51b815260206004820152602660248201527f53616665436173743a2076616c756520646f65736e27742066697420696e203660448201526534206269747360d01b6064820152608401610c1c565b60608315613761575081611771565b8251156137715782518084602001fd5b8160405162461bcd60e51b8152600401610c1c9190613c2d565b8280548282559060005260206000209081019282156137e0579160200282015b828111156137e057825182546001600160a01b0319166001600160a01b039091161782556020909201916001909101906137ab565b506135b29291506138d9565b8280548282559060005260206000209081019282156137e0579160200282015b828111156137e057825182559160200191906001019061380c565b828054828255906000526020600020908101928215613874579160200282015b8281111561387457825180516138649184916020909101906138ee565b5091602001919060010190613847565b506135b2929150613961565b8280548282559060005260206000209081019282156138cd579160200282015b828111156138cd57825180516138bd9184916020909101906138ee565b50916020019190600101906138a0565b506135b292915061397e565b5b808211156135b257600081556001016138da565b8280546138fa90614580565b90600052602060002090601f01602090048101928261391c57600085556137e0565b82601f1061393557805160ff19168380011785556137e0565b828001600101855582156137e057918201828111156137e057825182559160200191906001019061380c565b808211156135b2576000613975828261399b565b50600101613961565b808211156135b2576000613992828261399b565b5060010161397e565b5080546139a790614580565b6000825580601f106139b7575050565b601f016020900490600052602060002090810190610c7991906138d9565b6000602082840312156139e757600080fd5b5035919050565b600060208284031215613a0057600080fd5b81356001600160e01b03198116811461177157600080fd5b803560ff81168114613a2957600080fd5b919050565b60008083601f840112613a4057600080fd5b5081356001600160401b03811115613a5757600080fd5b602083019150836020828501011115613a6f57600080fd5b9250929050565b634e487b7160e01b600052604160045260246000fd5b604051601f8201601f191681016001600160401b0381118282101715613ab457613ab4613a76565b604052919050565b600082601f830112613acd57600080fd5b81356001600160401b03811115613ae657613ae6613a76565b613af9601f8201601f1916602001613a8c565b818152846020838601011115613b0e57600080fd5b816020850160208301376000918101602001919091529392505050565b60008060008060008060008060e0898b031215613b4757600080fd5b88359750613b5760208a01613a18565b965060408901356001600160401b0380821115613b7357600080fd5b613b7f8c838d01613a2e565b909850965060608b0135915080821115613b9857600080fd5b50613ba58b828c01613abc565b945050613bb460808a01613a18565b925060a0890135915060c089013590509295985092959890939650565b60005b83811015613bec578181015183820152602001613bd4565b83811115613bfb576000848401525b50505050565b60008151808452613c19816020860160208601613bd1565b601f01601f19169290920160200192915050565b6020815260006117716020830184613c01565b6001600160a01b0381168114610c7957600080fd5b60008060008060808587031215613c6b57600080fd5b8435613c7681613c40565b93506020850135613c8681613c40565b92506040850135915060608501356001600160401b03811115613ca857600080fd5b613cb487828801613abc565b91505092959194509250565b60006001600160401b03821115613cd957613cd9613a76565b5060051b60200190565b600082601f830112613cf457600080fd5b81356020613d09613d0483613cc0565b613a8c565b82815260059290921b84018101918181019086841115613d2857600080fd5b8286015b84811015613d4c578035613d3f81613c40565b8352918301918301613d2c565b509695505050505050565b600082601f830112613d6857600080fd5b81356020613d78613d0483613cc0565b82815260059290921b84018101918181019086841115613d9757600080fd5b8286015b84811015613d4c5780358352918301918301613d9b565b600082601f830112613dc357600080fd5b81356020613dd3613d0483613cc0565b82815260059290921b84018101918181019086841115613df257600080fd5b8286015b84811015613d4c5780356001600160401b03811115613e155760008081fd5b613e238986838b0101613abc565b845250918301918301613df6565b60008060008060808587031215613e4757600080fd5b84356001600160401b0380821115613e5e57600080fd5b613e6a88838901613ce3565b95506020870135915080821115613e8057600080fd5b613e8c88838901613d57565b94506040870135915080821115613ea257600080fd5b50613eaf87828801613db2565b949793965093946060013593505050565b600081518084526020808501945080840160005b83811015613ef95781516001600160a01b031687529582019590820190600101613ed4565b509495945050505050565b600081518084526020808501945080840160005b83811015613ef957815187529582019590820190600101613f18565b600081518084526020808501808196508360051b8101915082860160005b85811015613f7c578284038952613f6a848351613c01565b98850198935090840190600101613f52565b5091979650505050505050565b608081526000613f9c6080830187613ec0565b8281036020840152613fae8187613f04565b90508281036040840152613fc28186613f34565b9050828103606084015261135d8185613f34565b600080600080600060a08688031215613fee57600080fd5b85359450613ffe60208701613a18565b935061400c60408701613a18565b94979396509394606081013594506080013592915050565b634e487b7160e01b600052602160045260246000fd5b602081016008831061405c57634e487b7160e01b600052602160045260246000fd5b91905290565b6000806040838503121561407557600080fd5b82359150602083013561408781613c40565b809150509250929050565b600080604083850312156140a557600080fd5b823591506140b560208401613a18565b90509250929050565b6000806000806000608086880312156140d657600080fd5b853594506140e660208701613a18565b935060408601356001600160401b038082111561410257600080fd5b61410e89838a01613a2e565b9095509350606088013591508082111561412757600080fd5b5061413488828901613abc565b9150509295509295909350565b6000806000806060858703121561415757600080fd5b8435935061416760208601613a18565b925060408501356001600160401b0381111561418257600080fd5b61418e87828801613a2e565b95989497509550505050565b600080600080608085870312156141b057600080fd5b84356001600160401b03808211156141c757600080fd5b6141d388838901613ce3565b955060208701359150808211156141e957600080fd5b6141f588838901613d57565b9450604087013591508082111561420b57600080fd5b61421788838901613db2565b9350606087013591508082111561422d57600080fd5b50613cb487828801613abc565b60008060006060848603121561424f57600080fd5b833561425a81613c40565b92506020840135915060408401356001600160401b0381111561427c57600080fd5b61428886828701613abc565b9150509250925092565b6000602082840312156142a457600080fd5b813561177181613c40565b600080600080600060a086880312156142c757600080fd5b85356142d281613c40565b945060208601356142e281613c40565b935060408601356001600160401b03808211156142fe57600080fd5b61430a89838a01613d57565b9450606088013591508082111561432057600080fd5b61432c89838a01613d57565b9350608088013591508082111561412757600080fd5b6000806000806060858703121561435857600080fd5b843561436381613c40565b93506020850135925060408501356001600160401b0381111561418257600080fd5b600082601f83011261439657600080fd5b813560206143a6613d0483613cc0565b82815260059290921b840181019181810190868411156143c557600080fd5b8286015b84811015613d4c5780356001600160401b038111156143e85760008081fd5b6143f68986838b0101613abc565b8452509183019183016143c9565b600080600080600060a0868803121561441c57600080fd5b85356001600160401b038082111561443357600080fd5b61443f89838a01613ce3565b9650602088013591508082111561445557600080fd5b61446189838a01613d57565b9550604088013591508082111561447757600080fd5b61448389838a01614385565b9450606088013591508082111561449957600080fd5b61432c89838a01613db2565b600080604083850312156144b857600080fd5b82356144c381613c40565b946020939093013593505050565b600080600080600060a086880312156144e957600080fd5b85356144f481613c40565b9450602086013561450481613c40565b9350604086013592506060860135915060808601356001600160401b0381111561452d57600080fd5b61413488828901613abc565b8183823760009101908152919050565b60208082526018908201527f476f7665726e6f723a206f6e6c79476f7665726e616e63650000000000000000604082015260600190565b600181811c9082168061459457607f821691505b602082108114156145b557634e487b7160e01b600052602260045260246000fd5b50919050565b60208082526021908201527f476f7665726e6f723a2070726f706f73616c206e6f74207375636365737366756040820152601b60fa1b606082015260800190565b60006020828403121561460e57600080fd5b5051919050565b60a08152600061462860a0830188613ec0565b828103602084015261463a8188613f04565b9050828103604084015261464e8187613f34565b60608401959095525050608001529392505050565b60c08152600061467660c0830189613ec0565b82810360208401526146888189613f04565b9050828103604084015261469c8188613f34565b60608401969096525050608081019290925260a0909101529392505050565b634e487b7160e01b600052601160045260246000fd5b600082198211156146e4576146e46146bb565b500190565b6000828210156146fb576146fb6146bb565b500390565b6080815260006147136080830187613ec0565b82810360208401526147258187613f04565b905082810360408401526147398186613f34565b91505082606083015295945050505050565b84815260ff841660208201528260408201526080606082015260006117406080830184613c01565b85815260ff8516602082015283604082015260a06060820152600061479b60a0830185613c01565b82810360808401526147ad8185613c01565b98975050505050505050565b634e487b7160e01b600052603260045260246000fd5b60006000198214156147e3576147e36146bb565b5060010190565b6000602082840312156147fc57600080fd5b8151801515811461177157600080fd5b6001600160e01b031983168152815160009061482f816004850160208701613bd1565b919091016004019392505050565b6000816000190483118215151615614857576148576146bb565b500290565b60008261487957634e487b7160e01b600052601260045260246000fd5b500490565b60208082526021908201527f476f7665726e6f723a20696e76616c69642070726f706f73616c206c656e67746040820152600d60fb1b606082015260800190565b60006001600160401b038083168185168083038211156148e1576148e16146bb565b01949350505050565b8981526001600160a01b0389166020820152610120604082018190526000906149158382018b613ec0565b90508281036060840152614929818a613f04565b9050828103608084015261493d8189613f34565b905082810360a08401526149518188613f34565b6001600160401b0387811660c0860152861660e0850152838103610100850152905061497d8185613c01565b9c9b505050505050505050505050565b6000825161499f818460208701613bd1565b919091019291505056fe416464726573733a206c6f772d6c6576656c2063616c6c20776974682076616c7565206661696c6564a2646970667358221220c3af6bca07526d5de49147c6b01c5fc1dfd295bb978b859a205fad1b566b4a3764736f6c63430008090033",
  "devdoc": {
    "errors": {
      "Empty()": [
        {
          "details": "An operation (e.g. {front}) couldn't be completed due to the queue being empty."
        }
      ]
    },
    "kind": "dev",
    "methods": {
      "COUNTING_MODE()": {
        "details": "A description of the possible `support` values for {castVote} and the way these votes are counted, meant to be consumed by UIs to show correct vote options and interpret the results. The string is a URL-encoded sequence of key-value pairs that each describe one aspect, for example `support=bravo&quorum=for,abstain`. There are 2 standard keys: `support` and `quorum`. - `support=bravo` refers to the vote options 0 = Against, 1 = For, 2 = Abstain, as in `GovernorBravo`. - `quorum=bravo` means that only For votes are counted towards quorum. - `quorum=for,abstain` means that both For and Abstain votes are counted towards quorum. If a counting module makes use of encoded `params`, it should  include this under a `params` key with a unique name that describes the behavior. For example: - `params=fractional` might refer to a scheme where votes are divided fractionally between for/against/abstain. - `params=erc721` might refer to a scheme where specific NFTs are delegated to vote. NOTE: The string can be decoded by the standard https://developer.mozilla.org/en-US/docs/Web/API/URLSearchParams[`URLSearchParams`] JavaScript class."
      },
      "cancel(uint256)": {
        "details": "Cancels a proposal only if sender is the proposer, or proposer delegates dropped below proposal threshold."
      },
      "castVote(uint256,uint8)": {
        "details": "See {IGovernor-castVote}."
      },
      "castVoteBySig(uint256,uint8,uint8,bytes32,bytes32)": {
        "details": "See {IGovernor-castVoteBySig}."
      },
      "castVoteWithReason(uint256,uint8,string)": {
        "details": "See {IGovernor-castVoteWithReason}."
      },
      "castVoteWithReasonAndParams(uint256,uint8,string,bytes)": {
        "details": "See {IGovernor-castVoteWithReasonAndParams}."
      },
      "castVoteWithReasonAndParamsBySig(uint256,uint8,string,bytes,uint8,bytes32,bytes32)": {
        "details": "See {IGovernor-castVoteWithReasonAndParamsBySig}."
      },
      "execute(address[],uint256[],bytes[],bytes32)": {
        "details": "See {IGovernor-execute}."
      },
      "execute(uint256)": {
        "details": "See {IGovernorCompatibilityBravo-execute}."
      },
      "getActions(uint256)": {
        "details": "See {IGovernorCompatibilityBravo-getActions}."
      },
      "getReceipt(uint256,address)": {
        "details": "See {IGovernorCompatibilityBravo-getReceipt}."
      },
      "getVotes(address,uint256)": {
        "details": "Returns an address' voting power at a certain block",
        "params": {
          "account": "address to check voting power for",
          "blockNumber": "block number to check quorum for"
        }
      },
      "getVotesWithParams(address,uint256,bytes)": {
        "details": "See {IGovernor-getVotesWithParams}."
      },
      "hasVoted(uint256,address)": {
        "details": "See {IGovernor-hasVoted}."
      },
      "hashProposal(address[],uint256[],bytes[],bytes32)": {
        "details": "See {IGovernor-hashProposal}. The proposal id is produced by hashing the RLC encoded `targets` array, the `values` array, the `calldatas` array and the descriptionHash (bytes32 which itself is the keccak256 hash of the description string). This proposal id can be produced from the proposal data which is part of the {ProposalCreated} event. It can even be computed in advance, before the proposal is submitted. Note that the chainId and the governor address are not part of the proposal id computation. Consequently, the same proposal (with same operation and same description) will have the same id if submitted on multiple governors across multiple networks. This also means that in order to execute the same operation twice (on the same governor) the proposer will have to change the description in order to avoid proposal id conflicts."
      },
      "name()": {
        "details": "See {IGovernor-name}."
      },
      "onERC1155BatchReceived(address,address,uint256[],uint256[],bytes)": {
        "details": "See {IERC1155Receiver-onERC1155BatchReceived}."
      },
      "onERC1155Received(address,address,uint256,uint256,bytes)": {
        "details": "See {IERC1155Receiver-onERC1155Received}."
      },
      "onERC721Received(address,address,uint256,bytes)": {
        "details": "See {IERC721Receiver-onERC721Received}."
      },
      "proposalDeadline(uint256)": {
        "details": "See {IGovernor-proposalDeadline}."
      },
      "proposalEta(uint256)": {
        "details": "Public accessor to check the eta of a queued proposal"
      },
      "proposalSnapshot(uint256)": {
        "details": "See {IGovernor-proposalSnapshot}."
      },
      "proposalThreshold()": {
        "details": "Returns the minimum token amount required to vote, propose or execute proposals."
      },
      "proposals(uint256)": {
        "details": "See {IGovernorCompatibilityBravo-proposals}."
      },
      "propose(address[],uint256[],bytes[],string)": {
        "details": "Create a new proposal",
        "params": {
          "calldatas": "array of the parameters that will be passed to the contracts",
          "description": "description of the proposal, what it does and why it should be voted on",
          "targets": "array of the contract addresses that will be called",
          "values": "array of the ether that will be used to call the contracts"
        }
      },
      "propose(address[],uint256[],string[],bytes[],string)": {
        "details": "See {IGovernorCompatibilityBravo-propose}."
      },
      "queue(address[],uint256[],bytes[],bytes32)": {
        "details": "Function to queue a proposal to the timelock."
      },
      "queue(uint256)": {
        "details": "See {IGovernorCompatibilityBravo-queue}."
      },
      "quorum(uint256)": {
        "details": "Returns the quorum required to pass a proposal.",
        "params": {
          "blockNumber": "block number to check quorum for"
        }
      },
      "quorumDenominator()": {
        "details": "Returns the quorum denominator. Defaults to 100, but may be overridden."
      },
      "quorumNumerator()": {
        "details": "Returns the current quorum numerator. See {quorumDenominator}."
      },
      "quorumVotes()": {
        "details": "See {IGovernorCompatibilityBravo-quorumVotes}."
      },
      "relay(address,uint256,bytes)": {
        "details": "Relays a transaction or function call to an arbitrary target. In cases where the governance executor is some contract other than the governor itself, like when using a timelock, this function can be invoked in a governance proposal to recover tokens or Ether that was sent to the governor contract by mistake. Note that if the executor is simply the governor itself, use of `relay` is redundant."
      },
      "state(uint256)": {
        "details": "Returns the state of a proposal",
        "params": {
          "proposalId": "proposal to check"
        }
      },
      "supportsInterface(bytes4)": {
        "details": "Implementation of the IERC165 interface. Inherited from OpenZeppelin Governor"
      },
      "timelock()": {
        "details": "Public accessor to check the address of the timelock"
      },
      "updateQuorumNumerator(uint256)": {
        "details": "Changes the quorum numerator. Emits a {QuorumNumeratorUpdated} event. Requirements: - Must be called through a governance proposal. - New numerator must be smaller or equal to the denominator."
      },
      "updateTimelock(address)": {
        "details": "Public endpoint to update the underlying timelock instance. Restricted to the timelock itself, so updates must be proposed, scheduled, and executed through governance proposals. CAUTION: It is not recommended to change the timelock while there are other queued governance proposals."
      },
      "version()": {
        "details": "See {IGovernor-version}."
      },
      "votingDelay()": {
        "details": "Returns the voting delay before a proposal can be voted."
      },
      "votingPeriod()": {
        "details": "Returns the voting period during a proposal can be voted."
      }
    },
    "version": 1
  },
  "userdoc": {
    "kind": "user",
    "methods": {
      "COUNTING_MODE()": {
        "notice": "module:voting"
      }
    },
    "version": 1
  },
  "storageLayout": {
    "storage": [
      {
        "astId": 557,
        "contract": "contracts/governance/GovernorContract.sol:GovernorContract",
        "label": "_name",
        "offset": 0,
        "slot": "0",
        "type": "t_string_storage"
      },
      {
        "astId": 562,
        "contract": "contracts/governance/GovernorContract.sol:GovernorContract",
        "label": "_proposals",
        "offset": 0,
        "slot": "1",
        "type": "t_mapping(t_uint256,t_struct(ProposalCore)555_storage)"
      },
      {
        "astId": 565,
        "contract": "contracts/governance/GovernorContract.sol:GovernorContract",
        "label": "_governanceCall",
        "offset": 0,
        "slot": "2",
        "type": "t_struct(Bytes32Deque)8273_storage"
      },
      {
        "astId": 3042,
        "contract": "contracts/governance/GovernorContract.sol:GovernorContract",
        "label": "_proposalDetails",
        "offset": 0,
        "slot": "4",
        "type": "t_mapping(t_uint256,t_struct(ProposalDetails)3037_storage)"
      },
      {
        "astId": 4344,
        "contract": "contracts/governance/GovernorContract.sol:GovernorContract",
        "label": "_quorumNumerator",
        "offset": 0,
        "slot": "5",
        "type": "t_uint256"
      },
      {
        "astId": 3930,
        "contract": "contracts/governance/GovernorContract.sol:GovernorContract",
        "label": "_timelock",
        "offset": 0,
        "slot": "6",
        "type": "t_contract(TimelockController)2983"
      },
      {
        "astId": 3934,
        "contract": "contracts/governance/GovernorContract.sol:GovernorContract",
        "label": "_timelockIds",
        "offset": 0,
        "slot": "7",
        "type": "t_mapping(t_uint256,t_bytes32)"
      },
      {
        "astId": 8708,
        "contract": "contracts/governance/GovernorContract.sol:GovernorContract",
        "label": "_votingDelay",
        "offset": 0,
        "slot": "8",
        "type": "t_uint256"
      },
      {
        "astId": 8710,
        "contract": "contracts/governance/GovernorContract.sol:GovernorContract",
        "label": "_votingPeriod",
        "offset": 0,
        "slot": "9",
        "type": "t_uint256"
      }
    ],
    "types": {
      "t_address": {
        "encoding": "inplace",
        "label": "address",
        "numberOfBytes": "20"
      },
      "t_array(t_address)dyn_storage": {
        "base": "t_address",
        "encoding": "dynamic_array",
        "label": "address[]",
        "numberOfBytes": "32"
      },
      "t_array(t_bytes_storage)dyn_storage": {
        "base": "t_bytes_storage",
        "encoding": "dynamic_array",
        "label": "bytes[]",
        "numberOfBytes": "32"
      },
      "t_array(t_string_storage)dyn_storage": {
        "base": "t_string_storage",
        "encoding": "dynamic_array",
        "label": "string[]",
        "numberOfBytes": "32"
      },
      "t_array(t_uint256)dyn_storage": {
        "base": "t_uint256",
        "encoding": "dynamic_array",
        "label": "uint256[]",
        "numberOfBytes": "32"
      },
      "t_bool": {
        "encoding": "inplace",
        "label": "bool",
        "numberOfBytes": "1"
      },
      "t_bytes32": {
        "encoding": "inplace",
        "label": "bytes32",
        "numberOfBytes": "32"
      },
      "t_bytes_storage": {
        "encoding": "bytes",
        "label": "bytes",
        "numberOfBytes": "32"
      },
      "t_contract(TimelockController)2983": {
        "encoding": "inplace",
        "label": "contract TimelockController",
        "numberOfBytes": "20"
      },
      "t_int128": {
        "encoding": "inplace",
        "label": "int128",
        "numberOfBytes": "16"
      },
      "t_mapping(t_address,t_struct(Receipt)3817_storage)": {
        "encoding": "mapping",
        "key": "t_address",
        "label": "mapping(address => struct IGovernorCompatibilityBravo.Receipt)",
        "numberOfBytes": "32",
        "value": "t_struct(Receipt)3817_storage"
      },
      "t_mapping(t_int128,t_bytes32)": {
        "encoding": "mapping",
        "key": "t_int128",
        "label": "mapping(int128 => bytes32)",
        "numberOfBytes": "32",
        "value": "t_bytes32"
      },
      "t_mapping(t_uint256,t_bytes32)": {
        "encoding": "mapping",
        "key": "t_uint256",
        "label": "mapping(uint256 => bytes32)",
        "numberOfBytes": "32",
        "value": "t_bytes32"
      },
      "t_mapping(t_uint256,t_struct(ProposalCore)555_storage)": {
        "encoding": "mapping",
        "key": "t_uint256",
        "label": "mapping(uint256 => struct Governor.ProposalCore)",
        "numberOfBytes": "32",
        "value": "t_struct(ProposalCore)555_storage"
      },
      "t_mapping(t_uint256,t_struct(ProposalDetails)3037_storage)": {
        "encoding": "mapping",
        "key": "t_uint256",
        "label": "mapping(uint256 => struct GovernorCompatibilityBravo.ProposalDetails)",
        "numberOfBytes": "32",
        "value": "t_struct(ProposalDetails)3037_storage"
      },
      "t_string_storage": {
        "encoding": "bytes",
        "label": "string",
        "numberOfBytes": "32"
      },
      "t_struct(BlockNumber)7073_storage": {
        "encoding": "inplace",
        "label": "struct Timers.BlockNumber",
        "members": [
          {
            "astId": 7072,
            "contract": "contracts/governance/GovernorContract.sol:GovernorContract",
            "label": "_deadline",
            "offset": 0,
            "slot": "0",
            "type": "t_uint64"
          }
        ],
        "numberOfBytes": "32"
      },
      "t_struct(Bytes32Deque)8273_storage": {
        "encoding": "inplace",
        "label": "struct DoubleEndedQueue.Bytes32Deque",
        "members": [
          {
            "astId": 8266,
            "contract": "contracts/governance/GovernorContract.sol:GovernorContract",
            "label": "_begin",
            "offset": 0,
            "slot": "0",
            "type": "t_int128"
          },
          {
            "astId": 8268,
            "contract": "contracts/governance/GovernorContract.sol:GovernorContract",
            "label": "_end",
            "offset": 16,
            "slot": "0",
            "type": "t_int128"
          },
          {
            "astId": 8272,
            "contract": "contracts/governance/GovernorContract.sol:GovernorContract",
            "label": "_data",
            "offset": 0,
            "slot": "1",
            "type": "t_mapping(t_int128,t_bytes32)"
          }
        ],
        "numberOfBytes": "64"
      },
      "t_struct(ProposalCore)555_storage": {
        "encoding": "inplace",
        "label": "struct Governor.ProposalCore",
        "members": [
          {
            "astId": 547,
            "contract": "contracts/governance/GovernorContract.sol:GovernorContract",
            "label": "voteStart",
            "offset": 0,
            "slot": "0",
            "type": "t_struct(BlockNumber)7073_storage"
          },
          {
            "astId": 550,
            "contract": "contracts/governance/GovernorContract.sol:GovernorContract",
            "label": "voteEnd",
            "offset": 0,
            "slot": "1",
            "type": "t_struct(BlockNumber)7073_storage"
          },
          {
            "astId": 552,
            "contract": "contracts/governance/GovernorContract.sol:GovernorContract",
            "label": "executed",
            "offset": 0,
            "slot": "2",
            "type": "t_bool"
          },
          {
            "astId": 554,
            "contract": "contracts/governance/GovernorContract.sol:GovernorContract",
            "label": "canceled",
            "offset": 1,
            "slot": "2",
            "type": "t_bool"
          }
        ],
        "numberOfBytes": "96"
      },
      "t_struct(ProposalDetails)3037_storage": {
        "encoding": "inplace",
        "label": "struct GovernorCompatibilityBravo.ProposalDetails",
        "members": [
          {
            "astId": 3011,
            "contract": "contracts/governance/GovernorContract.sol:GovernorContract",
            "label": "proposer",
            "offset": 0,
            "slot": "0",
            "type": "t_address"
          },
          {
            "astId": 3014,
            "contract": "contracts/governance/GovernorContract.sol:GovernorContract",
            "label": "targets",
            "offset": 0,
            "slot": "1",
            "type": "t_array(t_address)dyn_storage"
          },
          {
            "astId": 3017,
            "contract": "contracts/governance/GovernorContract.sol:GovernorContract",
            "label": "values",
            "offset": 0,
            "slot": "2",
            "type": "t_array(t_uint256)dyn_storage"
          },
          {
            "astId": 3020,
            "contract": "contracts/governance/GovernorContract.sol:GovernorContract",
            "label": "signatures",
            "offset": 0,
            "slot": "3",
            "type": "t_array(t_string_storage)dyn_storage"
          },
          {
            "astId": 3023,
            "contract": "contracts/governance/GovernorContract.sol:GovernorContract",
            "label": "calldatas",
            "offset": 0,
            "slot": "4",
            "type": "t_array(t_bytes_storage)dyn_storage"
          },
          {
            "astId": 3025,
            "contract": "contracts/governance/GovernorContract.sol:GovernorContract",
            "label": "forVotes",
            "offset": 0,
            "slot": "5",
            "type": "t_uint256"
          },
          {
            "astId": 3027,
            "contract": "contracts/governance/GovernorContract.sol:GovernorContract",
            "label": "againstVotes",
            "offset": 0,
            "slot": "6",
            "type": "t_uint256"
          },
          {
            "astId": 3029,
            "contract": "contracts/governance/GovernorContract.sol:GovernorContract",
            "label": "abstainVotes",
            "offset": 0,
            "slot": "7",
            "type": "t_uint256"
          },
          {
            "astId": 3034,
            "contract": "contracts/governance/GovernorContract.sol:GovernorContract",
            "label": "receipts",
            "offset": 0,
            "slot": "8",
            "type": "t_mapping(t_address,t_struct(Receipt)3817_storage)"
          },
          {
            "astId": 3036,
            "contract": "contracts/governance/GovernorContract.sol:GovernorContract",
            "label": "descriptionHash",
            "offset": 0,
            "slot": "9",
            "type": "t_bytes32"
          }
        ],
        "numberOfBytes": "320"
      },
      "t_struct(Receipt)3817_storage": {
        "encoding": "inplace",
        "label": "struct IGovernorCompatibilityBravo.Receipt",
        "members": [
          {
            "astId": 3812,
            "contract": "contracts/governance/GovernorContract.sol:GovernorContract",
            "label": "hasVoted",
            "offset": 0,
            "slot": "0",
            "type": "t_bool"
          },
          {
            "astId": 3814,
            "contract": "contracts/governance/GovernorContract.sol:GovernorContract",
            "label": "support",
            "offset": 1,
            "slot": "0",
            "type": "t_uint8"
          },
          {
            "astId": 3816,
            "contract": "contracts/governance/GovernorContract.sol:GovernorContract",
            "label": "votes",
            "offset": 2,
            "slot": "0",
            "type": "t_uint96"
          }
        ],
        "numberOfBytes": "32"
      },
      "t_uint256": {
        "encoding": "inplace",
        "label": "uint256",
        "numberOfBytes": "32"
      },
      "t_uint64": {
        "encoding": "inplace",
        "label": "uint64",
        "numberOfBytes": "8"
      },
      "t_uint8": {
        "encoding": "inplace",
        "label": "uint8",
        "numberOfBytes": "1"
      },
      "t_uint96": {
        "encoding": "inplace",
        "label": "uint96",
        "numberOfBytes": "12"
      }
    }
  }
}